{
  "_format": "hh-sol-artifact-1",
  "contractName": "MPPC",
  "sourceName": "contracts/MPPC.sol",
  "abi": [
    {
      "inputs": [
        {
          "internalType": "string",
          "name": "preview",
          "type": "string"
        },
        {
          "internalType": "address",
          "name": "admin",
          "type": "address"
        }
      ],
      "stateMutability": "nonpayable",
      "type": "constructor"
    },
    {
      "inputs": [],
      "name": "ApprovalOwnerIsOperator",
      "type": "error"
    },
    {
      "inputs": [],
      "name": "ApprovalToCurrentOwner",
      "type": "error"
    },
    {
      "inputs": [],
      "name": "BalanceQueryZeroAddress",
      "type": "error"
    },
    {
      "inputs": [],
      "name": "ERC721ReceiverNotReceived",
      "type": "error"
    },
    {
      "inputs": [],
      "name": "InvalidCall",
      "type": "error"
    },
    {
      "inputs": [],
      "name": "NonExistentToken",
      "type": "error"
    },
    {
      "inputs": [],
      "name": "NotERC721Receiver",
      "type": "error"
    },
    {
      "anonymous": false,
      "inputs": [
        {
          "indexed": true,
          "internalType": "address",
          "name": "owner",
          "type": "address"
        },
        {
          "indexed": true,
          "internalType": "address",
          "name": "approved",
          "type": "address"
        },
        {
          "indexed": true,
          "internalType": "uint256",
          "name": "tokenId",
          "type": "uint256"
        }
      ],
      "name": "Approval",
      "type": "event"
    },
    {
      "anonymous": false,
      "inputs": [
        {
          "indexed": true,
          "internalType": "address",
          "name": "owner",
          "type": "address"
        },
        {
          "indexed": true,
          "internalType": "address",
          "name": "operator",
          "type": "address"
        },
        {
          "indexed": false,
          "internalType": "bool",
          "name": "approved",
          "type": "bool"
        }
      ],
      "name": "ApprovalForAll",
      "type": "event"
    },
    {
      "anonymous": false,
      "inputs": [
        {
          "indexed": true,
          "internalType": "address",
          "name": "previousOwner",
          "type": "address"
        },
        {
          "indexed": true,
          "internalType": "address",
          "name": "newOwner",
          "type": "address"
        }
      ],
      "name": "OwnershipTransferred",
      "type": "event"
    },
    {
      "anonymous": false,
      "inputs": [
        {
          "indexed": true,
          "internalType": "bytes32",
          "name": "role",
          "type": "bytes32"
        },
        {
          "indexed": true,
          "internalType": "bytes32",
          "name": "previousAdminRole",
          "type": "bytes32"
        },
        {
          "indexed": true,
          "internalType": "bytes32",
          "name": "newAdminRole",
          "type": "bytes32"
        }
      ],
      "name": "RoleAdminChanged",
      "type": "event"
    },
    {
      "anonymous": false,
      "inputs": [
        {
          "indexed": true,
          "internalType": "bytes32",
          "name": "role",
          "type": "bytes32"
        },
        {
          "indexed": true,
          "internalType": "address",
          "name": "account",
          "type": "address"
        },
        {
          "indexed": true,
          "internalType": "address",
          "name": "sender",
          "type": "address"
        }
      ],
      "name": "RoleGranted",
      "type": "event"
    },
    {
      "anonymous": false,
      "inputs": [
        {
          "indexed": true,
          "internalType": "bytes32",
          "name": "role",
          "type": "bytes32"
        },
        {
          "indexed": true,
          "internalType": "address",
          "name": "account",
          "type": "address"
        },
        {
          "indexed": true,
          "internalType": "address",
          "name": "sender",
          "type": "address"
        }
      ],
      "name": "RoleRevoked",
      "type": "event"
    },
    {
      "anonymous": false,
      "inputs": [
        {
          "indexed": true,
          "internalType": "address",
          "name": "from",
          "type": "address"
        },
        {
          "indexed": true,
          "internalType": "address",
          "name": "to",
          "type": "address"
        },
        {
          "indexed": true,
          "internalType": "uint256",
          "name": "tokenId",
          "type": "uint256"
        }
      ],
      "name": "Transfer",
      "type": "event"
    },
    {
      "inputs": [],
      "name": "DEFAULT_ADMIN_ROLE",
      "outputs": [
        {
          "internalType": "bytes32",
          "name": "",
          "type": "bytes32"
        }
      ],
      "stateMutability": "view",
      "type": "function"
    },
    {
      "inputs": [],
      "name": "MAX_SUPPLY",
      "outputs": [
        {
          "internalType": "uint16",
          "name": "",
          "type": "uint16"
        }
      ],
      "stateMutability": "view",
      "type": "function"
    },
    {
      "inputs": [
        {
          "internalType": "address",
          "name": "to",
          "type": "address"
        },
        {
          "internalType": "uint256",
          "name": "tokenId",
          "type": "uint256"
        }
      ],
      "name": "approve",
      "outputs": [],
      "stateMutability": "nonpayable",
      "type": "function"
    },
    {
      "inputs": [
        {
          "internalType": "address",
          "name": "owner",
          "type": "address"
        }
      ],
      "name": "balanceOf",
      "outputs": [
        {
          "internalType": "uint256",
          "name": "",
          "type": "uint256"
        }
      ],
      "stateMutability": "view",
      "type": "function"
    },
    {
      "inputs": [],
      "name": "contractURI",
      "outputs": [
        {
          "internalType": "string",
          "name": "",
          "type": "string"
        }
      ],
      "stateMutability": "view",
      "type": "function"
    },
    {
      "inputs": [],
      "name": "creatorFees",
      "outputs": [
        {
          "internalType": "uint256",
          "name": "",
          "type": "uint256"
        }
      ],
      "stateMutability": "view",
      "type": "function"
    },
    {
      "inputs": [
        {
          "internalType": "uint256",
          "name": "tokenId",
          "type": "uint256"
        }
      ],
      "name": "getApproved",
      "outputs": [
        {
          "internalType": "address",
          "name": "",
          "type": "address"
        }
      ],
      "stateMutability": "view",
      "type": "function"
    },
    {
      "inputs": [
        {
          "internalType": "bytes32",
          "name": "role",
          "type": "bytes32"
        }
      ],
      "name": "getRoleAdmin",
      "outputs": [
        {
          "internalType": "bytes32",
          "name": "",
          "type": "bytes32"
        }
      ],
      "stateMutability": "view",
      "type": "function"
    },
    {
      "inputs": [
        {
          "internalType": "bytes32",
          "name": "role",
          "type": "bytes32"
        },
        {
          "internalType": "address",
          "name": "account",
          "type": "address"
        }
      ],
      "name": "grantRole",
      "outputs": [],
      "stateMutability": "nonpayable",
      "type": "function"
    },
    {
      "inputs": [
        {
          "internalType": "bytes32",
          "name": "role",
          "type": "bytes32"
        },
        {
          "internalType": "address",
          "name": "account",
          "type": "address"
        }
      ],
      "name": "hasRole",
      "outputs": [
        {
          "internalType": "bool",
          "name": "",
          "type": "bool"
        }
      ],
      "stateMutability": "view",
      "type": "function"
    },
    {
      "inputs": [
        {
          "internalType": "address",
          "name": "owner",
          "type": "address"
        },
        {
          "internalType": "address",
          "name": "operator",
          "type": "address"
        }
      ],
      "name": "isApprovedForAll",
      "outputs": [
        {
          "internalType": "bool",
          "name": "",
          "type": "bool"
        }
      ],
      "stateMutability": "view",
      "type": "function"
    },
    {
      "inputs": [],
      "name": "maxPerWallet",
      "outputs": [
        {
          "internalType": "uint256",
          "name": "",
          "type": "uint256"
        }
      ],
      "stateMutability": "view",
      "type": "function"
    },
    {
      "inputs": [
        {
          "internalType": "uint256",
          "name": "quantity",
          "type": "uint256"
        },
        {
          "internalType": "uint256",
          "name": "maxMint",
          "type": "uint256"
        },
        {
          "internalType": "bytes",
          "name": "proof",
          "type": "bytes"
        }
      ],
      "name": "mint",
      "outputs": [],
      "stateMutability": "payable",
      "type": "function"
    },
    {
      "inputs": [
        {
          "internalType": "address",
          "name": "recipient",
          "type": "address"
        },
        {
          "internalType": "uint256",
          "name": "quantity",
          "type": "uint256"
        }
      ],
      "name": "mint",
      "outputs": [],
      "stateMutability": "nonpayable",
      "type": "function"
    },
    {
      "inputs": [
        {
          "internalType": "uint256",
          "name": "quantity",
          "type": "uint256"
        }
      ],
      "name": "mint",
      "outputs": [],
      "stateMutability": "payable",
      "type": "function"
    },
    {
      "inputs": [],
      "name": "mintPrice",
      "outputs": [
        {
          "internalType": "uint256",
          "name": "",
          "type": "uint256"
        }
      ],
      "stateMutability": "view",
      "type": "function"
    },
    {
      "inputs": [
        {
          "internalType": "address",
          "name": "",
          "type": "address"
        }
      ],
      "name": "minted",
      "outputs": [
        {
          "internalType": "uint256",
          "name": "",
          "type": "uint256"
        }
      ],
      "stateMutability": "view",
      "type": "function"
    },
    {
      "inputs": [],
      "name": "name",
      "outputs": [
        {
          "internalType": "string",
          "name": "",
          "type": "string"
        }
      ],
      "stateMutability": "pure",
      "type": "function"
    },
    {
      "inputs": [],
      "name": "owner",
      "outputs": [
        {
          "internalType": "address",
          "name": "",
          "type": "address"
        }
      ],
      "stateMutability": "view",
      "type": "function"
    },
    {
      "inputs": [
        {
          "internalType": "uint256",
          "name": "tokenId",
          "type": "uint256"
        }
      ],
      "name": "ownerOf",
      "outputs": [
        {
          "internalType": "address",
          "name": "",
          "type": "address"
        }
      ],
      "stateMutability": "view",
      "type": "function"
    },
    {
      "inputs": [],
      "name": "renounceOwnership",
      "outputs": [],
      "stateMutability": "nonpayable",
      "type": "function"
    },
    {
      "inputs": [
        {
          "internalType": "bytes32",
          "name": "role",
          "type": "bytes32"
        },
        {
          "internalType": "address",
          "name": "account",
          "type": "address"
        }
      ],
      "name": "renounceRole",
      "outputs": [],
      "stateMutability": "nonpayable",
      "type": "function"
    },
    {
      "inputs": [
        {
          "internalType": "bytes32",
          "name": "role",
          "type": "bytes32"
        },
        {
          "internalType": "address",
          "name": "account",
          "type": "address"
        }
      ],
      "name": "revokeRole",
      "outputs": [],
      "stateMutability": "nonpayable",
      "type": "function"
    },
    {
      "inputs": [
        {
          "internalType": "uint256",
          "name": "tokenId",
          "type": "uint256"
        },
        {
          "internalType": "uint256",
          "name": "salePrice",
          "type": "uint256"
        }
      ],
      "name": "royaltyInfo",
      "outputs": [
        {
          "internalType": "address",
          "name": "receiver",
          "type": "address"
        },
        {
          "internalType": "uint256",
          "name": "royaltyAmount",
          "type": "uint256"
        }
      ],
      "stateMutability": "view",
      "type": "function"
    },
    {
      "inputs": [
        {
          "internalType": "address",
          "name": "from",
          "type": "address"
        },
        {
          "internalType": "address",
          "name": "to",
          "type": "address"
        },
        {
          "internalType": "uint256",
          "name": "tokenId",
          "type": "uint256"
        }
      ],
      "name": "safeTransferFrom",
      "outputs": [],
      "stateMutability": "nonpayable",
      "type": "function"
    },
    {
      "inputs": [
        {
          "internalType": "address",
          "name": "from",
          "type": "address"
        },
        {
          "internalType": "address",
          "name": "to",
          "type": "address"
        },
        {
          "internalType": "uint256",
          "name": "tokenId",
          "type": "uint256"
        },
        {
          "internalType": "bytes",
          "name": "_data",
          "type": "bytes"
        }
      ],
      "name": "safeTransferFrom",
      "outputs": [],
      "stateMutability": "nonpayable",
      "type": "function"
    },
    {
      "inputs": [],
      "name": "saleStarted",
      "outputs": [
        {
          "internalType": "bool",
          "name": "",
          "type": "bool"
        }
      ],
      "stateMutability": "view",
      "type": "function"
    },
    {
      "inputs": [
        {
          "internalType": "address",
          "name": "operator",
          "type": "address"
        },
        {
          "internalType": "bool",
          "name": "approved",
          "type": "bool"
        }
      ],
      "name": "setApprovalForAll",
      "outputs": [],
      "stateMutability": "nonpayable",
      "type": "function"
    },
    {
      "inputs": [
        {
          "internalType": "string",
          "name": "uri",
          "type": "string"
        }
      ],
      "name": "setBaseURI",
      "outputs": [],
      "stateMutability": "nonpayable",
      "type": "function"
    },
    {
      "inputs": [
        {
          "internalType": "uint256",
          "name": "max",
          "type": "uint256"
        }
      ],
      "name": "setMaxPerWallet",
      "outputs": [],
      "stateMutability": "nonpayable",
      "type": "function"
    },
    {
      "inputs": [
        {
          "internalType": "uint256",
          "name": "price",
          "type": "uint256"
        }
      ],
      "name": "setMintPrice",
      "outputs": [],
      "stateMutability": "nonpayable",
      "type": "function"
    },
    {
      "inputs": [
        {
          "internalType": "address",
          "name": "recipient",
          "type": "address"
        }
      ],
      "name": "setTreasury",
      "outputs": [],
      "stateMutability": "nonpayable",
      "type": "function"
    },
    {
      "inputs": [
        {
          "internalType": "string",
          "name": "uri",
          "type": "string"
        }
      ],
      "name": "setURI",
      "outputs": [],
      "stateMutability": "nonpayable",
      "type": "function"
    },
    {
      "inputs": [
        {
          "internalType": "bool",
          "name": "yes",
          "type": "bool"
        }
      ],
      "name": "startSale",
      "outputs": [],
      "stateMutability": "nonpayable",
      "type": "function"
    },
    {
      "inputs": [
        {
          "internalType": "bytes4",
          "name": "interfaceId",
          "type": "bytes4"
        }
      ],
      "name": "supportsInterface",
      "outputs": [
        {
          "internalType": "bool",
          "name": "",
          "type": "bool"
        }
      ],
      "stateMutability": "view",
      "type": "function"
    },
    {
      "inputs": [],
      "name": "symbol",
      "outputs": [
        {
          "internalType": "string",
          "name": "",
          "type": "string"
        }
      ],
      "stateMutability": "pure",
      "type": "function"
    },
    {
      "inputs": [
        {
          "internalType": "uint256",
          "name": "tokenId",
          "type": "uint256"
        }
      ],
      "name": "tokenURI",
      "outputs": [
        {
          "internalType": "string",
          "name": "",
          "type": "string"
        }
      ],
      "stateMutability": "view",
      "type": "function"
    },
    {
      "inputs": [],
      "name": "totalSupply",
      "outputs": [
        {
          "internalType": "uint256",
          "name": "",
          "type": "uint256"
        }
      ],
      "stateMutability": "view",
      "type": "function"
    },
    {
      "inputs": [
        {
          "internalType": "address",
          "name": "from",
          "type": "address"
        },
        {
          "internalType": "address",
          "name": "to",
          "type": "address"
        },
        {
          "internalType": "uint256",
          "name": "tokenId",
          "type": "uint256"
        }
      ],
      "name": "transferFrom",
      "outputs": [],
      "stateMutability": "nonpayable",
      "type": "function"
    },
    {
      "inputs": [
        {
          "internalType": "address",
          "name": "newOwner",
          "type": "address"
        }
      ],
      "name": "transferOwnership",
      "outputs": [],
      "stateMutability": "nonpayable",
      "type": "function"
    },
    {
      "inputs": [],
      "name": "treasury",
      "outputs": [
        {
          "internalType": "address",
          "name": "",
          "type": "address"
        }
      ],
      "stateMutability": "view",
      "type": "function"
    },
    {
      "inputs": [
        {
          "internalType": "uint256",
          "name": "percent",
          "type": "uint256"
        }
      ],
      "name": "updateFees",
      "outputs": [],
      "stateMutability": "nonpayable",
      "type": "function"
    },
    {
      "inputs": [
        {
          "internalType": "contract PaymentSplitter",
          "name": "splitter",
          "type": "address"
        }
      ],
      "name": "withdraw",
      "outputs": [],
      "stateMutability": "nonpayable",
      "type": "function"
    }
  ],
  "bytecode": "0x60806040526002600d556658d15e17628000600e556103e8600f553480156200002757600080fd5b5060405162002d5338038062002d538339810160408190526200004a9162000246565b620000553362000085565b600160025562000067600082620000d5565b81516200007c9060089060208501906200016d565b50505062000374565b600080546001600160a01b038381166001600160a01b0319831681178455604051919092169283917f8be0079c531659141344cd1fd0a4f28419497f9722a3daafe3b4186f6b6457e09190a35050565b620000e18282620000e5565b5050565b60008281526001602090815260408083206001600160a01b038516845290915290205460ff16620000e15760008281526001602081815260408084206001600160a01b0386168086529252808420805460ff19169093179092559051339285917f2f8788117e7eff1d82e926ec794901d17c78024a50270940304540a733656f0d9190a45050565b8280546200017b9062000337565b90600052602060002090601f0160209004810192826200019f5760008555620001ea565b82601f10620001ba57805160ff1916838001178555620001ea565b82800160010185558215620001ea579182015b82811115620001ea578251825591602001919060010190620001cd565b50620001f8929150620001fc565b5090565b5b80821115620001f85760008155600101620001fd565b634e487b7160e01b600052604160045260246000fd5b80516001600160a01b03811681146200024157600080fd5b919050565b600080604083850312156200025a57600080fd5b82516001600160401b03808211156200027257600080fd5b818501915085601f8301126200028757600080fd5b8151818111156200029c576200029c62000213565b604051601f8201601f19908116603f01168101908382118183101715620002c757620002c762000213565b81604052828152602093508884848701011115620002e457600080fd5b600091505b82821015620003085784820184015181830185015290830190620002e9565b828211156200031a5760008484830101525b95506200032c91505085820162000229565b925050509250929050565b600181811c908216806200034c57607f821691505b602082108114156200036e57634e487b7160e01b600052602260045260246000fd5b50919050565b6129cf80620003846000396000f3fe60806040526004361061025c5760003560e01c80636352211e11610144578063a217fddf116100b6578063e268e4d31161007a578063e268e4d314610754578063e8a3d48514610774578063e985e9c514610789578063f0f44260146107a9578063f2fde38b146107c9578063f4a0a528146107e957600080fd5b8063a217fddf146106bf578063a22cb465146106d4578063b88d4fde146106f4578063c87b56dd14610714578063d547741f1461073457600080fd5b806378dacee11161010857806378dacee1146106015780638da5cb5b1461062157806391d148541461063f57806395d89b411461065f5780639c4c557c1461068c578063a0712d68146106ac57600080fd5b80636352211e146105805780636694ba61146105a05780636817c76c146105b657806370a08231146105cc578063715018a6146105ec57600080fd5b80632a55205a116101dd57806342842e0e116101a157806342842e0e146104d0578063453c2310146104f057806351cff8d91461050657806355f804b3146105265780635c474f9e1461054657806361d027b31461056057600080fd5b80632a55205a146104085780632f2ff15d1461044757806332cb6b0c1461046757806336568abe1461049057806340c10f19146104b057600080fd5b8063095ea7b311610224578063095ea7b31461034b57806318160ddd1461036b5780631e7269c51461038a57806323b872dd146103b7578063248a9ca3146103d757600080fd5b806301ffc9a71461026157806302fe53051461029657806306fdde03146102b8578063081812fc1461030057806308dc9f4214610338575b600080fd5b34801561026d57600080fd5b5061028161027c366004612256565b610809565b60405190151581526020015b60405180910390f35b3480156102a257600080fd5b506102b66102b13660046122ff565b61084f565b005b3480156102c457600080fd5b5060408051808201909152601681527526b0b734b630902837b7b6102830b93a3c9021b63ab160511b60208201525b60405161028d91906123a0565b34801561030c57600080fd5b5061032061031b3660046123b3565b610880565b6040516001600160a01b03909116815260200161028d565b6102b66103463660046123ec565b6108c4565b34801561035757600080fd5b506102b6610366366004612451565b610a7f565b34801561037757600080fd5b506003545b60405190815260200161028d565b34801561039657600080fd5b5061037c6103a536600461247d565b600a6020526000908152604090205481565b3480156103c357600080fd5b506102b66103d236600461249a565b610b0f565b3480156103e357600080fd5b5061037c6103f23660046123b3565b6000908152600160208190526040909120015490565b34801561041457600080fd5b506104286104233660046124db565b610b1b565b604080516001600160a01b03909316835260208301919091520161028d565b34801561045357600080fd5b506102b66104623660046124fd565b610b92565b34801561047357600080fd5b5061047d61232881565b60405161ffff909116815260200161028d565b34801561049c57600080fd5b506102b66104ab3660046124fd565b610bb9565b3480156104bc57600080fd5b506102b66104cb366004612451565b610c37565b3480156104dc57600080fd5b506102b66104eb36600461249a565b610cd2565b3480156104fc57600080fd5b5061037c600d5481565b34801561051257600080fd5b506102b661052136600461247d565b610ced565b34801561053257600080fd5b506102b66105413660046122ff565b610da9565b34801561055257600080fd5b50600b546102819060ff1681565b34801561056c57600080fd5b50601054610320906001600160a01b031681565b34801561058c57600080fd5b5061032061059b3660046123b3565b610dd5565b3480156105ac57600080fd5b5061037c600f5481565b3480156105c257600080fd5b5061037c600e5481565b3480156105d857600080fd5b5061037c6105e736600461247d565b610e92565b3480156105f857600080fd5b506102b6610ed7565b34801561060d57600080fd5b506102b661061c3660046123b3565b610f0d565b34801561062d57600080fd5b506000546001600160a01b0316610320565b34801561064b57600080fd5b5061028161065a3660046124fd565b610f4f565b34801561066b57600080fd5b506040805180820190915260048152634d50504360e01b60208201526102f3565b34801561069857600080fd5b506102b66106a7366004612542565b610f7a565b6102b66106ba3660046123b3565b610fa7565b3480156106cb57600080fd5b5061037c600081565b3480156106e057600080fd5b506102b66106ef36600461255d565b61109a565b34801561070057600080fd5b506102b661070f366004612592565b6110a5565b34801561072057600080fd5b506102f361072f3660046123b3565b6110b1565b34801561074057600080fd5b506102b661074f3660046124fd565b6111b0565b34801561076057600080fd5b506102b661076f3660046123b3565b6111d7565b34801561078057600080fd5b506102f36111f6565b34801561079557600080fd5b506102816107a43660046125fe565b611288565b3480156107b557600080fd5b506102b66107c436600461247d565b6112eb565b3480156107d557600080fd5b506102b66107e436600461247d565b61134f565b3480156107f557600080fd5b506102b66108043660046123b3565b6113ea565b60006001600160e01b03198216635b5e139f60e01b148061083a57506001600160e01b0319821663152a902d60e11b145b80610849575061084982611409565b92915050565b60008051602061297a833981519152610868813361142e565b815161087b9060099060208501906121a7565b505050565b600061088b82611492565b6108a857604051634a1850bf60e11b815260040160405180910390fd5b506000908152600660205260409020546001600160a01b031690565b6002805414156108ef5760405162461bcd60e51b81526004016108e69061262c565b60405180910390fd5b60028055336000818152600a6020526040902054839061090f9086612679565b1180610927575034600e54856109259190612691565b115b8061094657506123288461093a60035490565b6109449190612679565b115b80610a1e5750604051631b5a5b9d60e21b60208201526bffffffffffffffffffffffff19606083901b16602482015260388101849052610a1c907f9f2df0fed2c77648de5860a4cc508cd0818c85b8b8a1ab4ceeef8d981c8956a69061065a90610a1690605801604051602081830303815290604052805190602001206040517f19457468657265756d205369676e6564204d6573736167653a0a3332000000006020820152603c8101829052600090605c01604051602081830303815290604052805190602001209050919050565b856114a7565b155b15610a3c5760405163574b16a760e11b815260040160405180910390fd5b6001600160a01b0381166000908152600a602052604081208054869290610a64908490612679565b90915550610a74905081856114cb565b505060016002555050565b6000610a8a82610dd5565b9050806001600160a01b0316836001600160a01b03161415610abf5760405163250fdee360e21b815260040160405180910390fd5b336001600160a01b0382168114801590610ae05750610ade8282611288565b155b15610afe5760405163250fdee360e21b815260040160405180910390fd5b610b098484846114e5565b50505050565b61087b33848484611541565b60105460009081906001600160a01b03161580610b3e5750610b3c84611492565b155b15610b5c5760405163574b16a760e11b815260040160405180910390fd5b601054600f546001600160a01b039091169061271090610b7c9086612691565b610b8691906126c6565b915091505b9250929050565b60008281526001602081905260409091200154610baf813361142e565b61087b8383611574565b6001600160a01b0381163314610c295760405162461bcd60e51b815260206004820152602f60248201527f416363657373436f6e74726f6c3a2063616e206f6e6c792072656e6f756e636560448201526e103937b632b9903337b91039b2b63360891b60648201526084016108e6565b610c3382826115df565b5050565b7f9f2df0fed2c77648de5860a4cc508cd0818c85b8b8a1ab4ceeef8d981c8956a6610c62813361142e565b600280541415610c845760405162461bcd60e51b81526004016108e69061262c565b6002805561232882610c9560035490565b610c9f9190612679565b1115610cbe5760405163574b16a760e11b815260040160405180910390fd5b610cc883836114cb565b5050600160025550565b61087b838383604051806020016040528060008152506110a5565b6000546001600160a01b03163314610d175760405162461bcd60e51b81526004016108e6906126da565b600280541415610d395760405162461bcd60e51b81526004016108e69061262c565b60028055600c8054610d4a9061270f565b15159050610d6b5760405163574b16a760e11b815260040160405180910390fd5b6040516001600160a01b038216904780156108fc02916000818181858888f19350505050158015610da0573d6000803e3d6000fd5b50506001600255565b60008051602061297a833981519152610dc2813361142e565b815161087b90600c9060208501906121a7565b60008181526004602052604081205482906001600160a01b031615610e12576000908152600460205260409020546001600160a01b031692915050565b600081118015610e2457506003548111155b15610e78575b6000190180610e3857610e78565b6000818152600460205260409020546001600160a01b031615610e73576000908152600460205260409020546001600160a01b031692915050565b610e2a565b50604051634a1850bf60e11b815260040160405180910390fd5b60006001600160a01b038216610ebb576040516316285dcb60e11b815260040160405180910390fd5b506001600160a01b031660009081526005602052604090205490565b6000546001600160a01b03163314610f015760405162461bcd60e51b81526004016108e6906126da565b610f0b6000611646565b565b60008051602061297a833981519152610f26813361142e565b6103e8821115610f495760405163574b16a760e11b815260040160405180910390fd5b50600f55565b60009182526001602090815260408084206001600160a01b0393909316845291905290205460ff1690565b60008051602061297a833981519152610f93813361142e565b50600b805460ff1916911515919091179055565b600280541415610fc95760405162461bcd60e51b81526004016108e69061262c565b6002805533803b151580610fe05750600b5460ff16155b8061100e5750600d546001600160a01b0382166000908152600a602052604090205461100c9084612679565b115b80611025575034600e54836110239190612691565b115b8061104457506123288261103860035490565b6110429190612679565b115b156110625760405163574b16a760e11b815260040160405180910390fd5b6001600160a01b0381166000908152600a60205260408120805484929061108a908490612679565b90915550610da0905081836114cb565b610c33338383611696565b610b0984848484611736565b60606110bc82611492565b6110d95760405163574b16a760e11b815260040160405180910390fd5b6000600c80546110e89061270f565b90501161117f57600880546110fc9061270f565b80601f01602080910402602001604051908101604052809291908181526020018280546111289061270f565b80156111755780601f1061114a57610100808354040283529160200191611175565b820191906000526020600020905b81548152906001019060200180831161115857829003601f168201915b5050505050610849565b600c61118a83611783565b60405160200161119b929190612766565b60405160208183030381529060405292915050565b600082815260016020819052604090912001546111cd813361142e565b61087b83836115df565b60008051602061297a8339815191526111f0813361142e565b50600d55565b6060600980546112059061270f565b80601f01602080910402602001604051908101604052809291908181526020018280546112319061270f565b801561127e5780601f106112535761010080835404028352916020019161127e565b820191906000526020600020905b81548152906001019060200180831161126157829003601f168201915b5050505050905090565b60006112b47f4a0c3698e72495f6d49f6ef074f2b34cac5b153c817a7cc37789cccbb873cf5d83610f4f565b806112e457506001600160a01b0380841660009081526007602090815260408083209386168352929052205460ff165b9392505050565b60008051602061297a833981519152611304813361142e565b6001600160a01b0382163b61132c5760405163574b16a760e11b815260040160405180910390fd5b50601080546001600160a01b0319166001600160a01b0392909216919091179055565b6000546001600160a01b031633146113795760405162461bcd60e51b81526004016108e6906126da565b6001600160a01b0381166113de5760405162461bcd60e51b815260206004820152602660248201527f4f776e61626c653a206e6577206f776e657220697320746865207a65726f206160448201526564647265737360d01b60648201526084016108e6565b6113e781611646565b50565b60008051602061297a833981519152611403813361142e565b50600e55565b60006001600160e01b031982166380ac58cd60e01b1480610849575061084982611889565b6114388282610f4f565b610c3357611450816001600160a01b031660146118be565b61145b8360206118be565b60405160200161146c929190612821565b60408051601f198184030181529082905262461bcd60e51b82526108e6916004016123a0565b60008082118015610849575050600354101590565b60008060006114b68585611a5a565b915091506114c381611ac7565b509392505050565b610c33828260405180602001604052806000815250611c82565b60008281526006602052604080822080546001600160a01b0319166001600160a01b0387811691821790925591518593918516917f8c5be1e5ebec7d5bd14f71427d1e84f3dd0314c0f7b2291e5b200ac8c7c3b92591a4505050565b61154c848285611c8f565b6115695760405163574b16a760e11b815260040160405180910390fd5b610b09838383611cda565b61157e8282610f4f565b610c335760008281526001602081815260408084206001600160a01b0386168086529252808420805460ff19169093179092559051339285917f2f8788117e7eff1d82e926ec794901d17c78024a50270940304540a733656f0d9190a45050565b6115e98282610f4f565b15610c335760008281526001602090815260408083206001600160a01b0385168085529252808320805460ff1916905551339285917ff6391f5c32d9c69d2a47ea670b442974b53935d1edc7fd64eb21e047a839171b9190a45050565b600080546001600160a01b038381166001600160a01b0319831681178455604051919092169283917f8be0079c531659141344cd1fd0a4f28419497f9722a3daafe3b4186f6b6457e09190a35050565b816001600160a01b0316836001600160a01b031614156116c95760405163079f14e360e51b815260040160405180910390fd5b6001600160a01b03838116600081815260076020908152604080832094871680845294825291829020805460ff191686151590811790915591519182527f17307eab39ab6107e8899845ad3d59bd9653f200f220920489ca2b5937696c31910160405180910390a3505050565b61174233858585611541565b6000836001600160a01b03163b118015611765575061176384848484611e24565b155b15610b0957604051631f11849560e21b815260040160405180910390fd5b6060816117a75750506040805180820190915260018152600360fc1b602082015290565b8160005b81156117d157806117bb81612896565b91506117ca9050600a836126c6565b91506117ab565b60008167ffffffffffffffff8111156117ec576117ec612273565b6040519080825280601f01601f191660200182016040528015611816576020820181803683370190505b5090505b84156118815761182b6001836128b1565b9150611838600a866128c8565b611843906030612679565b60f81b818381518110611858576118586128dc565b60200101906001600160f81b031916908160001a90535061187a600a866126c6565b945061181a565b949350505050565b60006001600160e01b03198216637965db0b60e01b148061084957506301ffc9a760e01b6001600160e01b0319831614610849565b606060006118cd836002612691565b6118d8906002612679565b67ffffffffffffffff8111156118f0576118f0612273565b6040519080825280601f01601f19166020018201604052801561191a576020820181803683370190505b509050600360fc1b81600081518110611935576119356128dc565b60200101906001600160f81b031916908160001a905350600f60fb1b81600181518110611964576119646128dc565b60200101906001600160f81b031916908160001a9053506000611988846002612691565b611993906001612679565b90505b6001811115611a0b576f181899199a1a9b1b9c1cb0b131b232b360811b85600f16601081106119c7576119c76128dc565b1a60f81b8282815181106119dd576119dd6128dc565b60200101906001600160f81b031916908160001a90535060049490941c93611a04816128f2565b9050611996565b5083156112e45760405162461bcd60e51b815260206004820181905260248201527f537472696e67733a20686578206c656e67746820696e73756666696369656e7460448201526064016108e6565b600080825160411415611a915760208301516040840151606085015160001a611a8587828585611f1b565b94509450505050610b8b565b825160401415611abb5760208301516040840151611ab0868383612008565b935093505050610b8b565b50600090506002610b8b565b6000816004811115611adb57611adb612909565b1415611ae45750565b6001816004811115611af857611af8612909565b1415611b465760405162461bcd60e51b815260206004820152601860248201527f45434453413a20696e76616c6964207369676e6174757265000000000000000060448201526064016108e6565b6002816004811115611b5a57611b5a612909565b1415611ba85760405162461bcd60e51b815260206004820152601f60248201527f45434453413a20696e76616c6964207369676e6174757265206c656e6774680060448201526064016108e6565b6003816004811115611bbc57611bbc612909565b1415611c155760405162461bcd60e51b815260206004820152602260248201527f45434453413a20696e76616c6964207369676e6174757265202773272076616c604482015261756560f01b60648201526084016108e6565b6004816004811115611c2957611c29612909565b14156113e75760405162461bcd60e51b815260206004820152602260248201527f45434453413a20696e76616c6964207369676e6174757265202776272076616c604482015261756560f01b60648201526084016108e6565b61087b8383836001612037565b6000816001600160a01b0316846001600160a01b03161480611cca5750836001600160a01b0316611cbf84610880565b6001600160a01b0316145b8061188157506118818285611288565b6001600160a01b0382161580611d0a5750611cf481610dd5565b6001600160a01b0316836001600160a01b031614155b15611d285760405163574b16a760e11b815260040160405180910390fd5b611d34600082856114e5565b6001600160a01b03808316600081815260056020908152604080832080546001908101909155948816835280832080546000190190558583526004909152902080546001600160a01b0319169091179055600354908201908111801590611db057506000818152600460205260409020546001600160a01b0316155b15611ddd57600081815260046020526040902080546001600160a01b0319166001600160a01b0386161790555b5080826001600160a01b0316846001600160a01b03167fddf252ad1be2c89b69c2b068fc378daa952ba7f163c4a11628f55a4df523b3ef60405160405180910390a4505050565b604051630a85bd0160e11b81526000906001600160a01b0385169063150b7a0290611e5990339089908890889060040161291f565b602060405180830381600087803b158015611e7357600080fd5b505af1925050508015611ea3575060408051601f3d908101601f19168201909252611ea09181019061295c565b60015b611efe573d808015611ed1576040519150601f19603f3d011682016040523d82523d6000602084013e611ed6565b606091505b508051611ef657604051630568cbab60e01b815260040160405180910390fd5b805181602001fd5b6001600160e01b031916630a85bd0160e11b149050949350505050565b6000807f7fffffffffffffffffffffffffffffff5d576e7357a4501ddfe92f46681b20a0831115611f525750600090506003611fff565b8460ff16601b14158015611f6a57508460ff16601c14155b15611f7b5750600090506004611fff565b6040805160008082526020820180845289905260ff881692820192909252606081018690526080810185905260019060a0016020604051602081039080840390855afa158015611fcf573d6000803e3d6000fd5b5050604051601f1901519150506001600160a01b038116611ff857600060019250925050611fff565b9150600090505b94509492505050565b6000806001600160ff1b03831660ff84901c601b0161202987828885611f1b565b935093505050935093915050565b82158061204b57506001600160a01b038416155b156120695760405163574b16a760e11b815260040160405180910390fd5b6000600354600161207a9190612679565b905060038054850190556001600160a01b03851660008181526005602090815260408083208054890190558483526004909152902080546001600160a01b0319169091179055808481018380156120db57506000876001600160a01b03163b115b15612159575b60405182906001600160a01b038916906000907fddf252ad1be2c89b69c2b068fc378daa952ba7f163c4a11628f55a4df523b3ef908290a461212c6000888480600101955088611e24565b61214957604051631f11849560e21b815260040160405180910390fd5b808214156120e157505050610b09565b5b6040516001830192906001600160a01b038916906000907fddf252ad1be2c89b69c2b068fc378daa952ba7f163c4a11628f55a4df523b3ef908290a48082141561215a5750505050505050565b8280546121b39061270f565b90600052602060002090601f0160209004810192826121d5576000855561221b565b82601f106121ee57805160ff191683800117855561221b565b8280016001018555821561221b579182015b8281111561221b578251825591602001919060010190612200565b5061222792915061222b565b5090565b5b80821115612227576000815560010161222c565b6001600160e01b0319811681146113e757600080fd5b60006020828403121561226857600080fd5b81356112e481612240565b634e487b7160e01b600052604160045260246000fd5b600067ffffffffffffffff808411156122a4576122a4612273565b604051601f8501601f19908116603f011681019082821181831017156122cc576122cc612273565b816040528093508581528686860111156122e557600080fd5b858560208301376000602087830101525050509392505050565b60006020828403121561231157600080fd5b813567ffffffffffffffff81111561232857600080fd5b8201601f8101841361233957600080fd5b61188184823560208401612289565b60005b8381101561236357818101518382015260200161234b565b83811115610b095750506000910152565b6000815180845261238c816020860160208601612348565b601f01601f19169290920160200192915050565b6020815260006112e46020830184612374565b6000602082840312156123c557600080fd5b5035919050565b600082601f8301126123dd57600080fd5b6112e483833560208501612289565b60008060006060848603121561240157600080fd5b8335925060208401359150604084013567ffffffffffffffff81111561242657600080fd5b612432868287016123cc565b9150509250925092565b6001600160a01b03811681146113e757600080fd5b6000806040838503121561246457600080fd5b823561246f8161243c565b946020939093013593505050565b60006020828403121561248f57600080fd5b81356112e48161243c565b6000806000606084860312156124af57600080fd5b83356124ba8161243c565b925060208401356124ca8161243c565b929592945050506040919091013590565b600080604083850312156124ee57600080fd5b50508035926020909101359150565b6000806040838503121561251057600080fd5b8235915060208301356125228161243c565b809150509250929050565b8035801515811461253d57600080fd5b919050565b60006020828403121561255457600080fd5b6112e48261252d565b6000806040838503121561257057600080fd5b823561257b8161243c565b91506125896020840161252d565b90509250929050565b600080600080608085870312156125a857600080fd5b84356125b38161243c565b935060208501356125c38161243c565b925060408501359150606085013567ffffffffffffffff8111156125e657600080fd5b6125f2878288016123cc565b91505092959194509250565b6000806040838503121561261157600080fd5b823561261c8161243c565b915060208301356125228161243c565b6020808252601f908201527f5265656e7472616e637947756172643a207265656e7472616e742063616c6c00604082015260600190565b634e487b7160e01b600052601160045260246000fd5b6000821982111561268c5761268c612663565b500190565b60008160001904831182151516156126ab576126ab612663565b500290565b634e487b7160e01b600052601260045260246000fd5b6000826126d5576126d56126b0565b500490565b6020808252818101527f4f776e61626c653a2063616c6c6572206973206e6f7420746865206f776e6572604082015260600190565b600181811c9082168061272357607f821691505b6020821081141561274457634e487b7160e01b600052602260045260246000fd5b50919050565b6000815161275c818560208601612348565b9290920192915050565b600080845481600182811c91508083168061278257607f831692505b60208084108214156127a257634e487b7160e01b86526022600452602486fd5b8180156127b657600181146127c7576127f4565b60ff198616895284890196506127f4565b60008b81526020902060005b868110156127ec5781548b8201529085019083016127d3565b505084890196505b505050505050612818612807828661274a565b64173539b7b760d91b815260050190565b95945050505050565b7f416363657373436f6e74726f6c3a206163636f756e7420000000000000000000815260008351612859816017850160208801612348565b7001034b99036b4b9b9b4b733903937b6329607d1b601791840191820152835161288a816028840160208801612348565b01602801949350505050565b60006000198214156128aa576128aa612663565b5060010190565b6000828210156128c3576128c3612663565b500390565b6000826128d7576128d76126b0565b500690565b634e487b7160e01b600052603260045260246000fd5b60008161290157612901612663565b506000190190565b634e487b7160e01b600052602160045260246000fd5b6001600160a01b038581168252841660208201526040810183905260806060820181905260009061295290830184612374565b9695505050505050565b60006020828403121561296e57600080fd5b81516112e48161224056fe850d585eb7f024ccee5e68e55f2c26cc72e1e6ee456acf62135757a5eb9d4a10a2646970667358221220670522511c1f989d597716e8a8e8958f917f32b96d33cbf31d182314b2ed34cc64736f6c63430008090033",
  "linkReferences": {},
  "deployedLinkReferences": {}
}