{
  "_format": "hh-sol-artifact-1",
  "contractName": "MPPC",
  "sourceName": "contracts/MPPC.sol",
  "abi": [
    {
      "inputs": [
        {
          "internalType": "string",
          "name": "preview",
          "type": "string"
        },
        {
          "internalType": "address",
          "name": "admin",
          "type": "address"
        }
      ],
      "stateMutability": "nonpayable",
      "type": "constructor"
    },
    {
      "inputs": [],
      "name": "ApprovalOwnerIsOperator",
      "type": "error"
    },
    {
      "inputs": [],
      "name": "ApprovalToCurrentOwner",
      "type": "error"
    },
    {
      "inputs": [],
      "name": "BalanceQueryZeroAddress",
      "type": "error"
    },
    {
      "inputs": [],
      "name": "ERC721ReceiverNotReceived",
      "type": "error"
    },
    {
      "inputs": [],
      "name": "InvalidCall",
      "type": "error"
    },
    {
      "inputs": [],
      "name": "NonExistentToken",
      "type": "error"
    },
    {
      "inputs": [],
      "name": "NotERC721Receiver",
      "type": "error"
    },
    {
      "anonymous": false,
      "inputs": [
        {
          "indexed": true,
          "internalType": "address",
          "name": "owner",
          "type": "address"
        },
        {
          "indexed": true,
          "internalType": "address",
          "name": "approved",
          "type": "address"
        },
        {
          "indexed": true,
          "internalType": "uint256",
          "name": "tokenId",
          "type": "uint256"
        }
      ],
      "name": "Approval",
      "type": "event"
    },
    {
      "anonymous": false,
      "inputs": [
        {
          "indexed": true,
          "internalType": "address",
          "name": "owner",
          "type": "address"
        },
        {
          "indexed": true,
          "internalType": "address",
          "name": "operator",
          "type": "address"
        },
        {
          "indexed": false,
          "internalType": "bool",
          "name": "approved",
          "type": "bool"
        }
      ],
      "name": "ApprovalForAll",
      "type": "event"
    },
    {
      "anonymous": false,
      "inputs": [
        {
          "indexed": true,
          "internalType": "address",
          "name": "previousOwner",
          "type": "address"
        },
        {
          "indexed": true,
          "internalType": "address",
          "name": "newOwner",
          "type": "address"
        }
      ],
      "name": "OwnershipTransferred",
      "type": "event"
    },
    {
      "anonymous": false,
      "inputs": [
        {
          "indexed": true,
          "internalType": "bytes32",
          "name": "role",
          "type": "bytes32"
        },
        {
          "indexed": true,
          "internalType": "bytes32",
          "name": "previousAdminRole",
          "type": "bytes32"
        },
        {
          "indexed": true,
          "internalType": "bytes32",
          "name": "newAdminRole",
          "type": "bytes32"
        }
      ],
      "name": "RoleAdminChanged",
      "type": "event"
    },
    {
      "anonymous": false,
      "inputs": [
        {
          "indexed": true,
          "internalType": "bytes32",
          "name": "role",
          "type": "bytes32"
        },
        {
          "indexed": true,
          "internalType": "address",
          "name": "account",
          "type": "address"
        },
        {
          "indexed": true,
          "internalType": "address",
          "name": "sender",
          "type": "address"
        }
      ],
      "name": "RoleGranted",
      "type": "event"
    },
    {
      "anonymous": false,
      "inputs": [
        {
          "indexed": true,
          "internalType": "bytes32",
          "name": "role",
          "type": "bytes32"
        },
        {
          "indexed": true,
          "internalType": "address",
          "name": "account",
          "type": "address"
        },
        {
          "indexed": true,
          "internalType": "address",
          "name": "sender",
          "type": "address"
        }
      ],
      "name": "RoleRevoked",
      "type": "event"
    },
    {
      "anonymous": false,
      "inputs": [
        {
          "indexed": true,
          "internalType": "address",
          "name": "from",
          "type": "address"
        },
        {
          "indexed": true,
          "internalType": "address",
          "name": "to",
          "type": "address"
        },
        {
          "indexed": true,
          "internalType": "uint256",
          "name": "tokenId",
          "type": "uint256"
        }
      ],
      "name": "Transfer",
      "type": "event"
    },
    {
      "inputs": [],
      "name": "DEFAULT_ADMIN_ROLE",
      "outputs": [
        {
          "internalType": "bytes32",
          "name": "",
          "type": "bytes32"
        }
      ],
      "stateMutability": "view",
      "type": "function"
    },
    {
      "inputs": [],
      "name": "MAX_SUPPLY",
      "outputs": [
        {
          "internalType": "uint16",
          "name": "",
          "type": "uint16"
        }
      ],
      "stateMutability": "view",
      "type": "function"
    },
    {
      "inputs": [
        {
          "internalType": "address",
          "name": "to",
          "type": "address"
        },
        {
          "internalType": "uint256",
          "name": "tokenId",
          "type": "uint256"
        }
      ],
      "name": "approve",
      "outputs": [],
      "stateMutability": "nonpayable",
      "type": "function"
    },
    {
      "inputs": [
        {
          "internalType": "address",
          "name": "owner",
          "type": "address"
        }
      ],
      "name": "balanceOf",
      "outputs": [
        {
          "internalType": "uint256",
          "name": "",
          "type": "uint256"
        }
      ],
      "stateMutability": "view",
      "type": "function"
    },
    {
      "inputs": [],
      "name": "contractURI",
      "outputs": [
        {
          "internalType": "string",
          "name": "",
          "type": "string"
        }
      ],
      "stateMutability": "view",
      "type": "function"
    },
    {
      "inputs": [],
      "name": "creatorFees",
      "outputs": [
        {
          "internalType": "uint256",
          "name": "",
          "type": "uint256"
        }
      ],
      "stateMutability": "view",
      "type": "function"
    },
    {
      "inputs": [
        {
          "internalType": "uint256",
          "name": "tokenId",
          "type": "uint256"
        }
      ],
      "name": "getApproved",
      "outputs": [
        {
          "internalType": "address",
          "name": "",
          "type": "address"
        }
      ],
      "stateMutability": "view",
      "type": "function"
    },
    {
      "inputs": [
        {
          "internalType": "bytes32",
          "name": "role",
          "type": "bytes32"
        }
      ],
      "name": "getRoleAdmin",
      "outputs": [
        {
          "internalType": "bytes32",
          "name": "",
          "type": "bytes32"
        }
      ],
      "stateMutability": "view",
      "type": "function"
    },
    {
      "inputs": [
        {
          "internalType": "bytes32",
          "name": "role",
          "type": "bytes32"
        },
        {
          "internalType": "address",
          "name": "account",
          "type": "address"
        }
      ],
      "name": "grantRole",
      "outputs": [],
      "stateMutability": "nonpayable",
      "type": "function"
    },
    {
      "inputs": [
        {
          "internalType": "bytes32",
          "name": "role",
          "type": "bytes32"
        },
        {
          "internalType": "address",
          "name": "account",
          "type": "address"
        }
      ],
      "name": "hasRole",
      "outputs": [
        {
          "internalType": "bool",
          "name": "",
          "type": "bool"
        }
      ],
      "stateMutability": "view",
      "type": "function"
    },
    {
      "inputs": [
        {
          "internalType": "address",
          "name": "owner",
          "type": "address"
        },
        {
          "internalType": "address",
          "name": "operator",
          "type": "address"
        }
      ],
      "name": "isApprovedForAll",
      "outputs": [
        {
          "internalType": "bool",
          "name": "",
          "type": "bool"
        }
      ],
      "stateMutability": "view",
      "type": "function"
    },
    {
      "inputs": [],
      "name": "maxPerWallet",
      "outputs": [
        {
          "internalType": "uint256",
          "name": "",
          "type": "uint256"
        }
      ],
      "stateMutability": "view",
      "type": "function"
    },
    {
      "inputs": [
        {
          "internalType": "address",
          "name": "recipient",
          "type": "address"
        },
        {
          "internalType": "uint256",
          "name": "quantity",
          "type": "uint256"
        }
      ],
      "name": "mint",
      "outputs": [],
      "stateMutability": "nonpayable",
      "type": "function"
    },
    {
      "inputs": [
        {
          "internalType": "uint256",
          "name": "quantity",
          "type": "uint256"
        }
      ],
      "name": "mint",
      "outputs": [],
      "stateMutability": "payable",
      "type": "function"
    },
    {
      "inputs": [
        {
          "internalType": "uint256",
          "name": "quantity",
          "type": "uint256"
        },
        {
          "internalType": "bytes",
          "name": "proof",
          "type": "bytes"
        }
      ],
      "name": "mint",
      "outputs": [],
      "stateMutability": "payable",
      "type": "function"
    },
    {
      "inputs": [],
      "name": "mintPrice",
      "outputs": [
        {
          "internalType": "uint256",
          "name": "",
          "type": "uint256"
        }
      ],
      "stateMutability": "view",
      "type": "function"
    },
    {
      "inputs": [
        {
          "internalType": "address",
          "name": "",
          "type": "address"
        }
      ],
      "name": "minted",
      "outputs": [
        {
          "internalType": "uint256",
          "name": "",
          "type": "uint256"
        }
      ],
      "stateMutability": "view",
      "type": "function"
    },
    {
      "inputs": [],
      "name": "name",
      "outputs": [
        {
          "internalType": "string",
          "name": "",
          "type": "string"
        }
      ],
      "stateMutability": "pure",
      "type": "function"
    },
    {
      "inputs": [],
      "name": "owner",
      "outputs": [
        {
          "internalType": "address",
          "name": "",
          "type": "address"
        }
      ],
      "stateMutability": "view",
      "type": "function"
    },
    {
      "inputs": [
        {
          "internalType": "uint256",
          "name": "tokenId",
          "type": "uint256"
        }
      ],
      "name": "ownerOf",
      "outputs": [
        {
          "internalType": "address",
          "name": "",
          "type": "address"
        }
      ],
      "stateMutability": "view",
      "type": "function"
    },
    {
      "inputs": [],
      "name": "renounceOwnership",
      "outputs": [],
      "stateMutability": "nonpayable",
      "type": "function"
    },
    {
      "inputs": [
        {
          "internalType": "bytes32",
          "name": "role",
          "type": "bytes32"
        },
        {
          "internalType": "address",
          "name": "account",
          "type": "address"
        }
      ],
      "name": "renounceRole",
      "outputs": [],
      "stateMutability": "nonpayable",
      "type": "function"
    },
    {
      "inputs": [
        {
          "internalType": "bytes32",
          "name": "role",
          "type": "bytes32"
        },
        {
          "internalType": "address",
          "name": "account",
          "type": "address"
        }
      ],
      "name": "revokeRole",
      "outputs": [],
      "stateMutability": "nonpayable",
      "type": "function"
    },
    {
      "inputs": [
        {
          "internalType": "uint256",
          "name": "tokenId",
          "type": "uint256"
        },
        {
          "internalType": "uint256",
          "name": "salePrice",
          "type": "uint256"
        }
      ],
      "name": "royaltyInfo",
      "outputs": [
        {
          "internalType": "address",
          "name": "receiver",
          "type": "address"
        },
        {
          "internalType": "uint256",
          "name": "royaltyAmount",
          "type": "uint256"
        }
      ],
      "stateMutability": "view",
      "type": "function"
    },
    {
      "inputs": [
        {
          "internalType": "address",
          "name": "from",
          "type": "address"
        },
        {
          "internalType": "address",
          "name": "to",
          "type": "address"
        },
        {
          "internalType": "uint256",
          "name": "tokenId",
          "type": "uint256"
        }
      ],
      "name": "safeTransferFrom",
      "outputs": [],
      "stateMutability": "nonpayable",
      "type": "function"
    },
    {
      "inputs": [
        {
          "internalType": "address",
          "name": "from",
          "type": "address"
        },
        {
          "internalType": "address",
          "name": "to",
          "type": "address"
        },
        {
          "internalType": "uint256",
          "name": "tokenId",
          "type": "uint256"
        },
        {
          "internalType": "bytes",
          "name": "_data",
          "type": "bytes"
        }
      ],
      "name": "safeTransferFrom",
      "outputs": [],
      "stateMutability": "nonpayable",
      "type": "function"
    },
    {
      "inputs": [],
      "name": "saleStarted",
      "outputs": [
        {
          "internalType": "bool",
          "name": "",
          "type": "bool"
        }
      ],
      "stateMutability": "view",
      "type": "function"
    },
    {
      "inputs": [
        {
          "internalType": "address",
          "name": "operator",
          "type": "address"
        },
        {
          "internalType": "bool",
          "name": "approved",
          "type": "bool"
        }
      ],
      "name": "setApprovalForAll",
      "outputs": [],
      "stateMutability": "nonpayable",
      "type": "function"
    },
    {
      "inputs": [
        {
          "internalType": "string",
          "name": "uri",
          "type": "string"
        }
      ],
      "name": "setBaseURI",
      "outputs": [],
      "stateMutability": "nonpayable",
      "type": "function"
    },
    {
      "inputs": [
        {
          "internalType": "uint256",
          "name": "max",
          "type": "uint256"
        }
      ],
      "name": "setMaxPerWallet",
      "outputs": [],
      "stateMutability": "nonpayable",
      "type": "function"
    },
    {
      "inputs": [
        {
          "internalType": "uint256",
          "name": "price",
          "type": "uint256"
        }
      ],
      "name": "setMintPrice",
      "outputs": [],
      "stateMutability": "nonpayable",
      "type": "function"
    },
    {
      "inputs": [
        {
          "internalType": "address",
          "name": "recipient",
          "type": "address"
        }
      ],
      "name": "setTreasury",
      "outputs": [],
      "stateMutability": "nonpayable",
      "type": "function"
    },
    {
      "inputs": [
        {
          "internalType": "string",
          "name": "uri",
          "type": "string"
        }
      ],
      "name": "setURI",
      "outputs": [],
      "stateMutability": "nonpayable",
      "type": "function"
    },
    {
      "inputs": [
        {
          "internalType": "bool",
          "name": "yes",
          "type": "bool"
        }
      ],
      "name": "startSale",
      "outputs": [],
      "stateMutability": "nonpayable",
      "type": "function"
    },
    {
      "inputs": [
        {
          "internalType": "bytes4",
          "name": "interfaceId",
          "type": "bytes4"
        }
      ],
      "name": "supportsInterface",
      "outputs": [
        {
          "internalType": "bool",
          "name": "",
          "type": "bool"
        }
      ],
      "stateMutability": "view",
      "type": "function"
    },
    {
      "inputs": [],
      "name": "symbol",
      "outputs": [
        {
          "internalType": "string",
          "name": "",
          "type": "string"
        }
      ],
      "stateMutability": "pure",
      "type": "function"
    },
    {
      "inputs": [
        {
          "internalType": "uint256",
          "name": "tokenId",
          "type": "uint256"
        }
      ],
      "name": "tokenURI",
      "outputs": [
        {
          "internalType": "string",
          "name": "",
          "type": "string"
        }
      ],
      "stateMutability": "view",
      "type": "function"
    },
    {
      "inputs": [],
      "name": "totalSupply",
      "outputs": [
        {
          "internalType": "uint256",
          "name": "",
          "type": "uint256"
        }
      ],
      "stateMutability": "view",
      "type": "function"
    },
    {
      "inputs": [
        {
          "internalType": "address",
          "name": "from",
          "type": "address"
        },
        {
          "internalType": "address",
          "name": "to",
          "type": "address"
        },
        {
          "internalType": "uint256",
          "name": "tokenId",
          "type": "uint256"
        }
      ],
      "name": "transferFrom",
      "outputs": [],
      "stateMutability": "nonpayable",
      "type": "function"
    },
    {
      "inputs": [
        {
          "internalType": "address",
          "name": "newOwner",
          "type": "address"
        }
      ],
      "name": "transferOwnership",
      "outputs": [],
      "stateMutability": "nonpayable",
      "type": "function"
    },
    {
      "inputs": [],
      "name": "treasury",
      "outputs": [
        {
          "internalType": "address",
          "name": "",
          "type": "address"
        }
      ],
      "stateMutability": "view",
      "type": "function"
    },
    {
      "inputs": [
        {
          "internalType": "uint256",
          "name": "percent",
          "type": "uint256"
        }
      ],
      "name": "updateFees",
      "outputs": [],
      "stateMutability": "nonpayable",
      "type": "function"
    },
    {
      "inputs": [],
      "name": "withdraw",
      "outputs": [],
      "stateMutability": "nonpayable",
      "type": "function"
    }
  ],
  "bytecode": "0x60806040526005600d55666a94d74f430000600e556103e8600f553480156200002757600080fd5b5060405162002d4938038062002d498339810160408190526200004a9162000246565b620000553362000085565b600160025562000067600082620000d5565b81516200007c9060089060208501906200016d565b50505062000374565b600080546001600160a01b038381166001600160a01b0319831681178455604051919092169283917f8be0079c531659141344cd1fd0a4f28419497f9722a3daafe3b4186f6b6457e09190a35050565b620000e18282620000e5565b5050565b60008281526001602090815260408083206001600160a01b038516845290915290205460ff16620000e15760008281526001602081815260408084206001600160a01b0386168086529252808420805460ff19169093179092559051339285917f2f8788117e7eff1d82e926ec794901d17c78024a50270940304540a733656f0d9190a45050565b8280546200017b9062000337565b90600052602060002090601f0160209004810192826200019f5760008555620001ea565b82601f10620001ba57805160ff1916838001178555620001ea565b82800160010185558215620001ea579182015b82811115620001ea578251825591602001919060010190620001cd565b50620001f8929150620001fc565b5090565b5b80821115620001f85760008155600101620001fd565b634e487b7160e01b600052604160045260246000fd5b80516001600160a01b03811681146200024157600080fd5b919050565b600080604083850312156200025a57600080fd5b82516001600160401b03808211156200027257600080fd5b818501915085601f8301126200028757600080fd5b8151818111156200029c576200029c62000213565b604051601f8201601f19908116603f01168101908382118183101715620002c757620002c762000213565b81604052828152602093508884848701011115620002e457600080fd5b600091505b82821015620003085784820184015181830185015290830190620002e9565b828211156200031a5760008484830101525b95506200032c91505085820162000229565b925050509250929050565b600181811c908216806200034c57607f821691505b602082108114156200036e57634e487b7160e01b600052602260045260246000fd5b50919050565b6129c580620003846000396000f3fe60806040526004361061025c5760003560e01c80636694ba6111610144578063a22cb465116100b6578063e268e4d31161007a578063e268e4d314610749578063e8a3d48514610769578063e985e9c51461077e578063f0f442601461079e578063f2fde38b146107be578063f4a0a528146107de57600080fd5b8063a22cb465146106b6578063b88d4fde146106d6578063c87b56dd146106f6578063d547741f14610716578063db7fd4081461073657600080fd5b80638da5cb5b116101085780638da5cb5b1461060357806391d148541461062157806395d89b41146106415780639c4c557c1461066e578063a0712d681461068e578063a217fddf146106a157600080fd5b80636694ba61146105825780636817c76c1461059857806370a08231146105ae578063715018a6146105ce57806378dacee1146105e357600080fd5b80632f2ff15d116101dd57806342842e0e116101a157806342842e0e146104d2578063453c2310146104f257806355f804b3146105085780635c474f9e1461052857806361d027b3146105425780636352211e1461056257600080fd5b80632f2ff15d1461043457806332cb6b0c1461045457806336568abe1461047d5780633ccfd60b1461049d57806340c10f19146104b257600080fd5b806318160ddd1161022457806318160ddd146103585780631e7269c51461037757806323b872dd146103a4578063248a9ca3146103c45780632a55205a146103f557600080fd5b806301ffc9a71461026157806302fe53051461029657806306fdde03146102b8578063081812fc14610300578063095ea7b314610338575b600080fd5b34801561026d57600080fd5b5061028161027c366004612273565b6107fe565b60405190151581526020015b60405180910390f35b3480156102a257600080fd5b506102b66102b136600461231c565b610844565b005b3480156102c457600080fd5b5060408051808201909152601681527526b0b734b630902837b7b6102830b93a3c9021b63ab160511b60208201525b60405161028d91906123bd565b34801561030c57600080fd5b5061032061031b3660046123d0565b610875565b6040516001600160a01b03909116815260200161028d565b34801561034457600080fd5b506102b6610353366004612405565b6108b9565b34801561036457600080fd5b506003545b60405190815260200161028d565b34801561038357600080fd5b5061036961039236600461242f565b600a6020526000908152604090205481565b3480156103b057600080fd5b506102b66103bf36600461244a565b610949565b3480156103d057600080fd5b506103696103df3660046123d0565b6000908152600160208190526040909120015490565b34801561040157600080fd5b50610415610410366004612486565b610955565b604080516001600160a01b03909316835260208301919091520161028d565b34801561044057600080fd5b506102b661044f3660046124a8565b6109cc565b34801561046057600080fd5b5061046a61232881565b60405161ffff909116815260200161028d565b34801561048957600080fd5b506102b66104983660046124a8565b6109f3565b3480156104a957600080fd5b506102b6610a76565b3480156104be57600080fd5b506102b66104cd366004612405565b610b49565b3480156104de57600080fd5b506102b66104ed36600461244a565b610bed565b3480156104fe57600080fd5b50610369600d5481565b34801561051457600080fd5b506102b661052336600461231c565b610c08565b34801561053457600080fd5b50600b546102819060ff1681565b34801561054e57600080fd5b50601054610320906001600160a01b031681565b34801561056e57600080fd5b5061032061057d3660046123d0565b610c34565b34801561058e57600080fd5b50610369600f5481565b3480156105a457600080fd5b50610369600e5481565b3480156105ba57600080fd5b506103696105c936600461242f565b610cf1565b3480156105da57600080fd5b506102b6610d36565b3480156105ef57600080fd5b506102b66105fe3660046123d0565b610d6c565b34801561060f57600080fd5b506000546001600160a01b0316610320565b34801561062d57600080fd5b5061028161063c3660046124a8565b610dae565b34801561064d57600080fd5b506040805180820190915260048152634d50504360e01b60208201526102f3565b34801561067a57600080fd5b506102b66106893660046124e4565b610dd9565b6102b661069c3660046123d0565b610e06565b3480156106ad57600080fd5b50610369600081565b3480156106c257600080fd5b506102b66106d13660046124ff565b610f0b565b3480156106e257600080fd5b506102b66106f1366004612549565b610f16565b34801561070257600080fd5b506102f36107113660046123d0565b610f22565b34801561072257600080fd5b506102b66107313660046124a8565b611021565b6102b66107443660046125b1565b611048565b34801561075557600080fd5b506102b66107643660046123d0565b6111ed565b34801561077557600080fd5b506102f361120c565b34801561078a57600080fd5b506102816107993660046125f8565b61129e565b3480156107aa57600080fd5b506102b66107b936600461242f565b611308565b3480156107ca57600080fd5b506102b66107d936600461242f565b61136c565b3480156107ea57600080fd5b506102b66107f93660046123d0565b611407565b60006001600160e01b03198216635b5e139f60e01b148061082f57506001600160e01b0319821663152a902d60e11b145b8061083e575061083e82611426565b92915050565b60008051602061297083398151915261085d813361144b565b81516108709060099060208501906121c4565b505050565b6000610880826114af565b61089d57604051634a1850bf60e11b815260040160405180910390fd5b506000908152600660205260409020546001600160a01b031690565b60006108c482610c34565b9050806001600160a01b0316836001600160a01b031614156108f95760405163250fdee360e21b815260040160405180910390fd5b336001600160a01b038216811480159061091a5750610918828261129e565b155b156109385760405163250fdee360e21b815260040160405180910390fd5b6109438484846114c4565b50505050565b61087033848484611520565b60105460009081906001600160a01b031615806109785750610976846114af565b155b156109965760405163574b16a760e11b815260040160405180910390fd5b601054600f546001600160a01b0390911690612710906109b69086612638565b6109c0919061266d565b915091505b9250929050565b600082815260016020819052604090912001546109e9813361144b565b6108708383611553565b6001600160a01b0381163314610a685760405162461bcd60e51b815260206004820152602f60248201527f416363657373436f6e74726f6c3a2063616e206f6e6c792072656e6f756e636560448201526e103937b632b9903337b91039b2b63360891b60648201526084015b60405180910390fd5b610a7282826115be565b5050565b6000546001600160a01b03163314610aa05760405162461bcd60e51b8152600401610a5f90612681565b600280541415610ac25760405162461bcd60e51b8152600401610a5f906126b6565b600280556010546001600160a01b03161580610aea5750600c8054610ae6906126ed565b1590505b15610b085760405163574b16a760e11b815260040160405180910390fd5b6010546040516001600160a01b03909116904780156108fc02916000818181858888f19350505050158015610b41573d6000803e3d6000fd5b506001600255565b7f9f2df0fed2c77648de5860a4cc508cd0818c85b8b8a1ab4ceeef8d981c8956a6610b74813361144b565b600280541415610b965760405162461bcd60e51b8152600401610a5f906126b6565b60028055811580610bbb575061232882610baf60035490565b610bb99190612728565b115b15610bd95760405163574b16a760e11b815260040160405180910390fd5b610be38383611625565b5050600160025550565b61087083838360405180602001604052806000815250610f16565b600080516020612970833981519152610c21813361144b565b815161087090600c9060208501906121c4565b60008181526004602052604081205482906001600160a01b031615610c71576000908152600460205260409020546001600160a01b031692915050565b600081118015610c8357506003548111155b15610cd7575b6000190180610c9757610cd7565b6000818152600460205260409020546001600160a01b031615610cd2576000908152600460205260409020546001600160a01b031692915050565b610c89565b50604051634a1850bf60e11b815260040160405180910390fd5b60006001600160a01b038216610d1a576040516316285dcb60e11b815260040160405180910390fd5b506001600160a01b031660009081526005602052604090205490565b6000546001600160a01b03163314610d605760405162461bcd60e51b8152600401610a5f90612681565b610d6a600061163f565b565b600080516020612970833981519152610d85813361144b565b6103e8821115610da85760405163574b16a760e11b815260040160405180910390fd5b50600f55565b60009182526001602090815260408084206001600160a01b0393909316845291905290205460ff1690565b600080516020612970833981519152610df2813361144b565b50600b805460ff1916911515919091179055565b600280541415610e285760405162461bcd60e51b8152600401610a5f906126b6565b6002805533803b151580610e3f5750600b5460ff16155b80610e48575081155b80610e765750600d546001600160a01b0382166000908152600a6020526040902054610e749084612728565b115b80610e8d575034600e5483610e8b9190612638565b115b80610eac575061232882610ea060035490565b610eaa9190612728565b115b15610eca5760405163574b16a760e11b815260040160405180910390fd5b6001600160a01b0381166000908152600a602052604081208054849290610ef2908490612728565b90915550610f0290508183611625565b50506001600255565b610a7233838361168f565b6109438484848461172f565b6060610f2d826114af565b610f4a5760405163574b16a760e11b815260040160405180910390fd5b6000600c8054610f59906126ed565b905011610ff05760088054610f6d906126ed565b80601f0160208091040260200160405190810160405280929190818152602001828054610f99906126ed565b8015610fe65780601f10610fbb57610100808354040283529160200191610fe6565b820191906000526020600020905b815481529060010190602001808311610fc957829003601f168201915b505050505061083e565b600c610ffb8361177c565b60405160200161100c92919061275c565b60405160208183030381529060405292915050565b6000828152600160208190526040909120015461103e813361144b565b61087083836115be565b60028054141561106a5760405162461bcd60e51b8152600401610a5f906126b6565b600280553382158061109f5750600d546001600160a01b0382166000908152600a602052604090205461109d9085612728565b115b806110b6575034600e54846110b49190612638565b115b806110d55750612328836110c960035490565b6110d39190612728565b115b80611197575060408051631b5a5b9d60e21b602080830191909152606084901b6bffffffffffffffffffffffff19166024830152825160188184030181526038830184528051908201207f19457468657265756d205369676e6564204d6573736167653a0a33320000000060588401526074808401919091528351808403909101815260949092019092528051910120611195907f9f2df0fed2c77648de5860a4cc508cd0818c85b8b8a1ab4ceeef8d981c8956a69061063c9085611882565b155b156111b55760405163574b16a760e11b815260040160405180910390fd5b6001600160a01b0381166000908152600a6020526040812080548592906111dd908490612728565b90915550610be390508184611625565b600080516020612970833981519152611206813361144b565b50600d55565b60606009805461121b906126ed565b80601f0160208091040260200160405190810160405280929190818152602001828054611247906126ed565b80156112945780601f1061126957610100808354040283529160200191611294565b820191906000526020600020905b81548152906001019060200180831161127757829003601f168201915b5050505050905090565b60006112ca7f4a0c3698e72495f6d49f6ef074f2b34cac5b153c817a7cc37789cccbb873cf5d83610dae565b156112d75750600161083e565b6001600160a01b0380841660009081526007602090815260408083209386168352929052205460ff165b9392505050565b600080516020612970833981519152611321813361144b565b6001600160a01b0382163b6113495760405163574b16a760e11b815260040160405180910390fd5b50601080546001600160a01b0319166001600160a01b0392909216919091179055565b6000546001600160a01b031633146113965760405162461bcd60e51b8152600401610a5f90612681565b6001600160a01b0381166113fb5760405162461bcd60e51b815260206004820152602660248201527f4f776e61626c653a206e6577206f776e657220697320746865207a65726f206160448201526564647265737360d01b6064820152608401610a5f565b6114048161163f565b50565b600080516020612970833981519152611420813361144b565b50600e55565b60006001600160e01b031982166380ac58cd60e01b148061083e575061083e826118a6565b6114558282610dae565b610a725761146d816001600160a01b031660146118db565b6114788360206118db565b604051602001611489929190612817565b60408051601f198184030181529082905262461bcd60e51b8252610a5f916004016123bd565b6000808211801561083e575050600354101590565b60008281526006602052604080822080546001600160a01b0319166001600160a01b0387811691821790925591518593918516917f8c5be1e5ebec7d5bd14f71427d1e84f3dd0314c0f7b2291e5b200ac8c7c3b92591a4505050565b61152b848285611a77565b6115485760405163574b16a760e11b815260040160405180910390fd5b610943838383611ac2565b61155d8282610dae565b610a725760008281526001602081815260408084206001600160a01b0386168086529252808420805460ff19169093179092559051339285917f2f8788117e7eff1d82e926ec794901d17c78024a50270940304540a733656f0d9190a45050565b6115c88282610dae565b15610a725760008281526001602090815260408083206001600160a01b0385168085529252808320805460ff1916905551339285917ff6391f5c32d9c69d2a47ea670b442974b53935d1edc7fd64eb21e047a839171b9190a45050565b610a72828260405180602001604052806000815250611c0c565b600080546001600160a01b038381166001600160a01b0319831681178455604051919092169283917f8be0079c531659141344cd1fd0a4f28419497f9722a3daafe3b4186f6b6457e09190a35050565b816001600160a01b0316836001600160a01b031614156116c25760405163079f14e360e51b815260040160405180910390fd5b6001600160a01b03838116600081815260076020908152604080832094871680845294825291829020805460ff191686151590811790915591519182527f17307eab39ab6107e8899845ad3d59bd9653f200f220920489ca2b5937696c31910160405180910390a3505050565b61173b33858585611520565b6000836001600160a01b03163b11801561175e575061175c84848484611c19565b155b1561094357604051631f11849560e21b815260040160405180910390fd5b6060816117a05750506040805180820190915260018152600360fc1b602082015290565b8160005b81156117ca57806117b48161288c565b91506117c39050600a8361266d565b91506117a4565b60008167ffffffffffffffff8111156117e5576117e5612290565b6040519080825280601f01601f19166020018201604052801561180f576020820181803683370190505b5090505b841561187a576118246001836128a7565b9150611831600a866128be565b61183c906030612728565b60f81b818381518110611851576118516128d2565b60200101906001600160f81b031916908160001a905350611873600a8661266d565b9450611813565b949350505050565b60008060006118918585611d10565b9150915061189e81611d7d565b509392505050565b60006001600160e01b03198216637965db0b60e01b148061083e57506301ffc9a760e01b6001600160e01b031983161461083e565b606060006118ea836002612638565b6118f5906002612728565b67ffffffffffffffff81111561190d5761190d612290565b6040519080825280601f01601f191660200182016040528015611937576020820181803683370190505b509050600360fc1b81600081518110611952576119526128d2565b60200101906001600160f81b031916908160001a905350600f60fb1b81600181518110611981576119816128d2565b60200101906001600160f81b031916908160001a90535060006119a5846002612638565b6119b0906001612728565b90505b6001811115611a28576f181899199a1a9b1b9c1cb0b131b232b360811b85600f16601081106119e4576119e46128d2565b1a60f81b8282815181106119fa576119fa6128d2565b60200101906001600160f81b031916908160001a90535060049490941c93611a21816128e8565b90506119b3565b5083156113015760405162461bcd60e51b815260206004820181905260248201527f537472696e67733a20686578206c656e67746820696e73756666696369656e746044820152606401610a5f565b6000816001600160a01b0316846001600160a01b03161480611ab25750836001600160a01b0316611aa784610875565b6001600160a01b0316145b8061187a575061187a828561129e565b6001600160a01b0382161580611af25750611adc81610c34565b6001600160a01b0316836001600160a01b031614155b15611b105760405163574b16a760e11b815260040160405180910390fd5b611b1c600082856114c4565b6001600160a01b03808316600081815260056020908152604080832080546001908101909155948816835280832080546000190190558583526004909152902080546001600160a01b0319169091179055600354908201908111801590611b9857506000818152600460205260409020546001600160a01b0316155b15611bc557600081815260046020526040902080546001600160a01b0319166001600160a01b0386161790555b5080826001600160a01b0316846001600160a01b03167fddf252ad1be2c89b69c2b068fc378daa952ba7f163c4a11628f55a4df523b3ef60405160405180910390a4505050565b6108708383836001611f38565b604051630a85bd0160e11b81526000906001600160a01b0385169063150b7a0290611c4e9033908990889088906004016128ff565b602060405180830381600087803b158015611c6857600080fd5b505af1925050508015611c98575060408051601f3d908101601f19168201909252611c959181019061293c565b60015b611cf3573d808015611cc6576040519150601f19603f3d011682016040523d82523d6000602084013e611ccb565b606091505b508051611ceb57604051630568cbab60e01b815260040160405180910390fd5b805181602001fd5b6001600160e01b031916630a85bd0160e11b149050949350505050565b600080825160411415611d475760208301516040840151606085015160001a611d3b878285856120a8565b945094505050506109c5565b825160401415611d715760208301516040840151611d66868383612195565b9350935050506109c5565b506000905060026109c5565b6000816004811115611d9157611d91612959565b1415611d9a5750565b6001816004811115611dae57611dae612959565b1415611dfc5760405162461bcd60e51b815260206004820152601860248201527f45434453413a20696e76616c6964207369676e617475726500000000000000006044820152606401610a5f565b6002816004811115611e1057611e10612959565b1415611e5e5760405162461bcd60e51b815260206004820152601f60248201527f45434453413a20696e76616c6964207369676e6174757265206c656e677468006044820152606401610a5f565b6003816004811115611e7257611e72612959565b1415611ecb5760405162461bcd60e51b815260206004820152602260248201527f45434453413a20696e76616c6964207369676e6174757265202773272076616c604482015261756560f01b6064820152608401610a5f565b6004816004811115611edf57611edf612959565b14156114045760405162461bcd60e51b815260206004820152602260248201527f45434453413a20696e76616c6964207369676e6174757265202776272076616c604482015261756560f01b6064820152608401610a5f565b821580611f4c57506001600160a01b038416155b15611f6a5760405163574b16a760e11b815260040160405180910390fd5b60006003546001611f7b9190612728565b905060038054850190556001600160a01b03851660008181526005602090815260408083208054890190558483526004909152902080546001600160a01b031916909117905580848101838015611fdc57506000876001600160a01b03163b115b1561205a575b60405182906001600160a01b038916906000907fddf252ad1be2c89b69c2b068fc378daa952ba7f163c4a11628f55a4df523b3ef908290a461202d6000888480600101955088611c19565b61204a57604051631f11849560e21b815260040160405180910390fd5b80821415611fe257505050610943565b5b6040516001830192906001600160a01b038916906000907fddf252ad1be2c89b69c2b068fc378daa952ba7f163c4a11628f55a4df523b3ef908290a48082141561205b5750505050505050565b6000807f7fffffffffffffffffffffffffffffff5d576e7357a4501ddfe92f46681b20a08311156120df575060009050600361218c565b8460ff16601b141580156120f757508460ff16601c14155b15612108575060009050600461218c565b6040805160008082526020820180845289905260ff881692820192909252606081018690526080810185905260019060a0016020604051602081039080840390855afa15801561215c573d6000803e3d6000fd5b5050604051601f1901519150506001600160a01b0381166121855760006001925092505061218c565b9150600090505b94509492505050565b6000806001600160ff1b03831660ff84901c601b016121b6878288856120a8565b935093505050935093915050565b8280546121d0906126ed565b90600052602060002090601f0160209004810192826121f25760008555612238565b82601f1061220b57805160ff1916838001178555612238565b82800160010185558215612238579182015b8281111561223857825182559160200191906001019061221d565b50612244929150612248565b5090565b5b808211156122445760008155600101612249565b6001600160e01b03198116811461140457600080fd5b60006020828403121561228557600080fd5b81356113018161225d565b634e487b7160e01b600052604160045260246000fd5b600067ffffffffffffffff808411156122c1576122c1612290565b604051601f8501601f19908116603f011681019082821181831017156122e9576122e9612290565b8160405280935085815286868601111561230257600080fd5b858560208301376000602087830101525050509392505050565b60006020828403121561232e57600080fd5b813567ffffffffffffffff81111561234557600080fd5b8201601f8101841361235657600080fd5b61187a848235602084016122a6565b60005b83811015612380578181015183820152602001612368565b838111156109435750506000910152565b600081518084526123a9816020860160208601612365565b601f01601f19169290920160200192915050565b6020815260006113016020830184612391565b6000602082840312156123e257600080fd5b5035919050565b80356001600160a01b038116811461240057600080fd5b919050565b6000806040838503121561241857600080fd5b612421836123e9565b946020939093013593505050565b60006020828403121561244157600080fd5b611301826123e9565b60008060006060848603121561245f57600080fd5b612468846123e9565b9250612476602085016123e9565b9150604084013590509250925092565b6000806040838503121561249957600080fd5b50508035926020909101359150565b600080604083850312156124bb57600080fd5b823591506124cb602084016123e9565b90509250929050565b8035801515811461240057600080fd5b6000602082840312156124f657600080fd5b611301826124d4565b6000806040838503121561251257600080fd5b61251b836123e9565b91506124cb602084016124d4565b600082601f83011261253a57600080fd5b611301838335602085016122a6565b6000806000806080858703121561255f57600080fd5b612568856123e9565b9350612576602086016123e9565b925060408501359150606085013567ffffffffffffffff81111561259957600080fd5b6125a587828801612529565b91505092959194509250565b600080604083850312156125c457600080fd5b82359150602083013567ffffffffffffffff8111156125e257600080fd5b6125ee85828601612529565b9150509250929050565b6000806040838503121561260b57600080fd5b612614836123e9565b91506124cb602084016123e9565b634e487b7160e01b600052601160045260246000fd5b600081600019048311821515161561265257612652612622565b500290565b634e487b7160e01b600052601260045260246000fd5b60008261267c5761267c612657565b500490565b6020808252818101527f4f776e61626c653a2063616c6c6572206973206e6f7420746865206f776e6572604082015260600190565b6020808252601f908201527f5265656e7472616e637947756172643a207265656e7472616e742063616c6c00604082015260600190565b600181811c9082168061270157607f821691505b6020821081141561272257634e487b7160e01b600052602260045260246000fd5b50919050565b6000821982111561273b5761273b612622565b500190565b60008151612752818560208601612365565b9290920192915050565b600080845481600182811c91508083168061277857607f831692505b602080841082141561279857634e487b7160e01b86526022600452602486fd5b8180156127ac57600181146127bd576127ea565b60ff198616895284890196506127ea565b60008b81526020902060005b868110156127e25781548b8201529085019083016127c9565b505084890196505b50505050505061280e6127fd8286612740565b64173539b7b760d91b815260050190565b95945050505050565b7f416363657373436f6e74726f6c3a206163636f756e742000000000000000000081526000835161284f816017850160208801612365565b7001034b99036b4b9b9b4b733903937b6329607d1b6017918401918201528351612880816028840160208801612365565b01602801949350505050565b60006000198214156128a0576128a0612622565b5060010190565b6000828210156128b9576128b9612622565b500390565b6000826128cd576128cd612657565b500690565b634e487b7160e01b600052603260045260246000fd5b6000816128f7576128f7612622565b506000190190565b6001600160a01b038581168252841660208201526040810183905260806060820181905260009061293290830184612391565b9695505050505050565b60006020828403121561294e57600080fd5b81516113018161225d565b634e487b7160e01b600052602160045260246000fdfe850d585eb7f024ccee5e68e55f2c26cc72e1e6ee456acf62135757a5eb9d4a10a2646970667358221220944f84d9558af5b13f5a5eee0f6b721a0d5bd232f98e6f03a178d11534180aa764736f6c63430008090033",
  "linkReferences": {},
  "deployedLinkReferences": {}
}