{
  "_format": "hh-sol-artifact-1",
  "contractName": "MPPC",
  "sourceName": "contracts/MPPC.sol",
  "abi": [
    {
      "inputs": [
        {
          "internalType": "string",
          "name": "preview",
          "type": "string"
        },
        {
          "internalType": "address",
          "name": "admin",
          "type": "address"
        }
      ],
      "stateMutability": "nonpayable",
      "type": "constructor"
    },
    {
      "inputs": [],
      "name": "ApprovalOwnerIsOperator",
      "type": "error"
    },
    {
      "inputs": [],
      "name": "ApprovalToCurrentOwner",
      "type": "error"
    },
    {
      "inputs": [],
      "name": "BalanceQueryZeroAddress",
      "type": "error"
    },
    {
      "inputs": [],
      "name": "ERC721ReceiverNotReceived",
      "type": "error"
    },
    {
      "inputs": [],
      "name": "InvalidCall",
      "type": "error"
    },
    {
      "inputs": [],
      "name": "NonExistentToken",
      "type": "error"
    },
    {
      "inputs": [],
      "name": "NotERC721Receiver",
      "type": "error"
    },
    {
      "anonymous": false,
      "inputs": [
        {
          "indexed": true,
          "internalType": "address",
          "name": "owner",
          "type": "address"
        },
        {
          "indexed": true,
          "internalType": "address",
          "name": "approved",
          "type": "address"
        },
        {
          "indexed": true,
          "internalType": "uint256",
          "name": "tokenId",
          "type": "uint256"
        }
      ],
      "name": "Approval",
      "type": "event"
    },
    {
      "anonymous": false,
      "inputs": [
        {
          "indexed": true,
          "internalType": "address",
          "name": "owner",
          "type": "address"
        },
        {
          "indexed": true,
          "internalType": "address",
          "name": "operator",
          "type": "address"
        },
        {
          "indexed": false,
          "internalType": "bool",
          "name": "approved",
          "type": "bool"
        }
      ],
      "name": "ApprovalForAll",
      "type": "event"
    },
    {
      "anonymous": false,
      "inputs": [
        {
          "indexed": true,
          "internalType": "address",
          "name": "previousOwner",
          "type": "address"
        },
        {
          "indexed": true,
          "internalType": "address",
          "name": "newOwner",
          "type": "address"
        }
      ],
      "name": "OwnershipTransferred",
      "type": "event"
    },
    {
      "anonymous": false,
      "inputs": [
        {
          "indexed": true,
          "internalType": "bytes32",
          "name": "role",
          "type": "bytes32"
        },
        {
          "indexed": true,
          "internalType": "bytes32",
          "name": "previousAdminRole",
          "type": "bytes32"
        },
        {
          "indexed": true,
          "internalType": "bytes32",
          "name": "newAdminRole",
          "type": "bytes32"
        }
      ],
      "name": "RoleAdminChanged",
      "type": "event"
    },
    {
      "anonymous": false,
      "inputs": [
        {
          "indexed": true,
          "internalType": "bytes32",
          "name": "role",
          "type": "bytes32"
        },
        {
          "indexed": true,
          "internalType": "address",
          "name": "account",
          "type": "address"
        },
        {
          "indexed": true,
          "internalType": "address",
          "name": "sender",
          "type": "address"
        }
      ],
      "name": "RoleGranted",
      "type": "event"
    },
    {
      "anonymous": false,
      "inputs": [
        {
          "indexed": true,
          "internalType": "bytes32",
          "name": "role",
          "type": "bytes32"
        },
        {
          "indexed": true,
          "internalType": "address",
          "name": "account",
          "type": "address"
        },
        {
          "indexed": true,
          "internalType": "address",
          "name": "sender",
          "type": "address"
        }
      ],
      "name": "RoleRevoked",
      "type": "event"
    },
    {
      "anonymous": false,
      "inputs": [
        {
          "indexed": true,
          "internalType": "address",
          "name": "from",
          "type": "address"
        },
        {
          "indexed": true,
          "internalType": "address",
          "name": "to",
          "type": "address"
        },
        {
          "indexed": true,
          "internalType": "uint256",
          "name": "tokenId",
          "type": "uint256"
        }
      ],
      "name": "Transfer",
      "type": "event"
    },
    {
      "inputs": [],
      "name": "DEFAULT_ADMIN_ROLE",
      "outputs": [
        {
          "internalType": "bytes32",
          "name": "",
          "type": "bytes32"
        }
      ],
      "stateMutability": "view",
      "type": "function"
    },
    {
      "inputs": [],
      "name": "MAX_SUPPLY",
      "outputs": [
        {
          "internalType": "uint16",
          "name": "",
          "type": "uint16"
        }
      ],
      "stateMutability": "view",
      "type": "function"
    },
    {
      "inputs": [
        {
          "internalType": "address",
          "name": "to",
          "type": "address"
        },
        {
          "internalType": "uint256",
          "name": "tokenId",
          "type": "uint256"
        }
      ],
      "name": "approve",
      "outputs": [],
      "stateMutability": "nonpayable",
      "type": "function"
    },
    {
      "inputs": [
        {
          "internalType": "address",
          "name": "owner",
          "type": "address"
        }
      ],
      "name": "balanceOf",
      "outputs": [
        {
          "internalType": "uint256",
          "name": "",
          "type": "uint256"
        }
      ],
      "stateMutability": "view",
      "type": "function"
    },
    {
      "inputs": [],
      "name": "contractURI",
      "outputs": [
        {
          "internalType": "string",
          "name": "",
          "type": "string"
        }
      ],
      "stateMutability": "view",
      "type": "function"
    },
    {
      "inputs": [],
      "name": "creatorFees",
      "outputs": [
        {
          "internalType": "uint256",
          "name": "",
          "type": "uint256"
        }
      ],
      "stateMutability": "view",
      "type": "function"
    },
    {
      "inputs": [
        {
          "internalType": "uint256",
          "name": "tokenId",
          "type": "uint256"
        }
      ],
      "name": "getApproved",
      "outputs": [
        {
          "internalType": "address",
          "name": "",
          "type": "address"
        }
      ],
      "stateMutability": "view",
      "type": "function"
    },
    {
      "inputs": [
        {
          "internalType": "bytes32",
          "name": "role",
          "type": "bytes32"
        }
      ],
      "name": "getRoleAdmin",
      "outputs": [
        {
          "internalType": "bytes32",
          "name": "",
          "type": "bytes32"
        }
      ],
      "stateMutability": "view",
      "type": "function"
    },
    {
      "inputs": [
        {
          "internalType": "bytes32",
          "name": "role",
          "type": "bytes32"
        },
        {
          "internalType": "address",
          "name": "account",
          "type": "address"
        }
      ],
      "name": "grantRole",
      "outputs": [],
      "stateMutability": "nonpayable",
      "type": "function"
    },
    {
      "inputs": [
        {
          "internalType": "bytes32",
          "name": "role",
          "type": "bytes32"
        },
        {
          "internalType": "address",
          "name": "account",
          "type": "address"
        }
      ],
      "name": "hasRole",
      "outputs": [
        {
          "internalType": "bool",
          "name": "",
          "type": "bool"
        }
      ],
      "stateMutability": "view",
      "type": "function"
    },
    {
      "inputs": [
        {
          "internalType": "address",
          "name": "owner",
          "type": "address"
        },
        {
          "internalType": "address",
          "name": "operator",
          "type": "address"
        }
      ],
      "name": "isApprovedForAll",
      "outputs": [
        {
          "internalType": "bool",
          "name": "",
          "type": "bool"
        }
      ],
      "stateMutability": "view",
      "type": "function"
    },
    {
      "inputs": [],
      "name": "maxPerWallet",
      "outputs": [
        {
          "internalType": "uint256",
          "name": "",
          "type": "uint256"
        }
      ],
      "stateMutability": "view",
      "type": "function"
    },
    {
      "inputs": [
        {
          "internalType": "uint256",
          "name": "quantity",
          "type": "uint256"
        },
        {
          "internalType": "uint256",
          "name": "maxMint",
          "type": "uint256"
        },
        {
          "internalType": "bytes",
          "name": "proof",
          "type": "bytes"
        }
      ],
      "name": "mint",
      "outputs": [],
      "stateMutability": "payable",
      "type": "function"
    },
    {
      "inputs": [
        {
          "internalType": "address",
          "name": "recipient",
          "type": "address"
        },
        {
          "internalType": "uint256",
          "name": "quantity",
          "type": "uint256"
        }
      ],
      "name": "mint",
      "outputs": [],
      "stateMutability": "nonpayable",
      "type": "function"
    },
    {
      "inputs": [
        {
          "internalType": "uint256",
          "name": "quantity",
          "type": "uint256"
        }
      ],
      "name": "mint",
      "outputs": [],
      "stateMutability": "payable",
      "type": "function"
    },
    {
      "inputs": [],
      "name": "mintPrice",
      "outputs": [
        {
          "internalType": "uint256",
          "name": "",
          "type": "uint256"
        }
      ],
      "stateMutability": "view",
      "type": "function"
    },
    {
      "inputs": [
        {
          "internalType": "address",
          "name": "",
          "type": "address"
        }
      ],
      "name": "minted",
      "outputs": [
        {
          "internalType": "uint256",
          "name": "",
          "type": "uint256"
        }
      ],
      "stateMutability": "view",
      "type": "function"
    },
    {
      "inputs": [],
      "name": "name",
      "outputs": [
        {
          "internalType": "string",
          "name": "",
          "type": "string"
        }
      ],
      "stateMutability": "pure",
      "type": "function"
    },
    {
      "inputs": [],
      "name": "owner",
      "outputs": [
        {
          "internalType": "address",
          "name": "",
          "type": "address"
        }
      ],
      "stateMutability": "view",
      "type": "function"
    },
    {
      "inputs": [
        {
          "internalType": "uint256",
          "name": "tokenId",
          "type": "uint256"
        }
      ],
      "name": "ownerOf",
      "outputs": [
        {
          "internalType": "address",
          "name": "",
          "type": "address"
        }
      ],
      "stateMutability": "view",
      "type": "function"
    },
    {
      "inputs": [],
      "name": "renounceOwnership",
      "outputs": [],
      "stateMutability": "nonpayable",
      "type": "function"
    },
    {
      "inputs": [
        {
          "internalType": "bytes32",
          "name": "role",
          "type": "bytes32"
        },
        {
          "internalType": "address",
          "name": "account",
          "type": "address"
        }
      ],
      "name": "renounceRole",
      "outputs": [],
      "stateMutability": "nonpayable",
      "type": "function"
    },
    {
      "inputs": [
        {
          "internalType": "bytes32",
          "name": "role",
          "type": "bytes32"
        },
        {
          "internalType": "address",
          "name": "account",
          "type": "address"
        }
      ],
      "name": "revokeRole",
      "outputs": [],
      "stateMutability": "nonpayable",
      "type": "function"
    },
    {
      "inputs": [
        {
          "internalType": "uint256",
          "name": "tokenId",
          "type": "uint256"
        },
        {
          "internalType": "uint256",
          "name": "salePrice",
          "type": "uint256"
        }
      ],
      "name": "royaltyInfo",
      "outputs": [
        {
          "internalType": "address",
          "name": "receiver",
          "type": "address"
        },
        {
          "internalType": "uint256",
          "name": "royaltyAmount",
          "type": "uint256"
        }
      ],
      "stateMutability": "view",
      "type": "function"
    },
    {
      "inputs": [
        {
          "internalType": "address",
          "name": "from",
          "type": "address"
        },
        {
          "internalType": "address",
          "name": "to",
          "type": "address"
        },
        {
          "internalType": "uint256",
          "name": "tokenId",
          "type": "uint256"
        }
      ],
      "name": "safeTransferFrom",
      "outputs": [],
      "stateMutability": "nonpayable",
      "type": "function"
    },
    {
      "inputs": [
        {
          "internalType": "address",
          "name": "from",
          "type": "address"
        },
        {
          "internalType": "address",
          "name": "to",
          "type": "address"
        },
        {
          "internalType": "uint256",
          "name": "tokenId",
          "type": "uint256"
        },
        {
          "internalType": "bytes",
          "name": "_data",
          "type": "bytes"
        }
      ],
      "name": "safeTransferFrom",
      "outputs": [],
      "stateMutability": "nonpayable",
      "type": "function"
    },
    {
      "inputs": [],
      "name": "saleStarted",
      "outputs": [
        {
          "internalType": "bool",
          "name": "",
          "type": "bool"
        }
      ],
      "stateMutability": "view",
      "type": "function"
    },
    {
      "inputs": [
        {
          "internalType": "address",
          "name": "operator",
          "type": "address"
        },
        {
          "internalType": "bool",
          "name": "approved",
          "type": "bool"
        }
      ],
      "name": "setApprovalForAll",
      "outputs": [],
      "stateMutability": "nonpayable",
      "type": "function"
    },
    {
      "inputs": [
        {
          "internalType": "string",
          "name": "uri",
          "type": "string"
        }
      ],
      "name": "setBaseURI",
      "outputs": [],
      "stateMutability": "nonpayable",
      "type": "function"
    },
    {
      "inputs": [
        {
          "internalType": "uint256",
          "name": "max",
          "type": "uint256"
        }
      ],
      "name": "setMaxPerWallet",
      "outputs": [],
      "stateMutability": "nonpayable",
      "type": "function"
    },
    {
      "inputs": [
        {
          "internalType": "uint256",
          "name": "price",
          "type": "uint256"
        }
      ],
      "name": "setMintPrice",
      "outputs": [],
      "stateMutability": "nonpayable",
      "type": "function"
    },
    {
      "inputs": [
        {
          "internalType": "address",
          "name": "recipient",
          "type": "address"
        }
      ],
      "name": "setTreasury",
      "outputs": [],
      "stateMutability": "nonpayable",
      "type": "function"
    },
    {
      "inputs": [
        {
          "internalType": "string",
          "name": "uri",
          "type": "string"
        }
      ],
      "name": "setURI",
      "outputs": [],
      "stateMutability": "nonpayable",
      "type": "function"
    },
    {
      "inputs": [
        {
          "internalType": "bool",
          "name": "yes",
          "type": "bool"
        }
      ],
      "name": "startSale",
      "outputs": [],
      "stateMutability": "nonpayable",
      "type": "function"
    },
    {
      "inputs": [
        {
          "internalType": "bytes4",
          "name": "interfaceId",
          "type": "bytes4"
        }
      ],
      "name": "supportsInterface",
      "outputs": [
        {
          "internalType": "bool",
          "name": "",
          "type": "bool"
        }
      ],
      "stateMutability": "view",
      "type": "function"
    },
    {
      "inputs": [],
      "name": "symbol",
      "outputs": [
        {
          "internalType": "string",
          "name": "",
          "type": "string"
        }
      ],
      "stateMutability": "pure",
      "type": "function"
    },
    {
      "inputs": [
        {
          "internalType": "uint256",
          "name": "tokenId",
          "type": "uint256"
        }
      ],
      "name": "tokenURI",
      "outputs": [
        {
          "internalType": "string",
          "name": "",
          "type": "string"
        }
      ],
      "stateMutability": "view",
      "type": "function"
    },
    {
      "inputs": [],
      "name": "totalSupply",
      "outputs": [
        {
          "internalType": "uint256",
          "name": "",
          "type": "uint256"
        }
      ],
      "stateMutability": "view",
      "type": "function"
    },
    {
      "inputs": [
        {
          "internalType": "address",
          "name": "from",
          "type": "address"
        },
        {
          "internalType": "address",
          "name": "to",
          "type": "address"
        },
        {
          "internalType": "uint256",
          "name": "tokenId",
          "type": "uint256"
        }
      ],
      "name": "transferFrom",
      "outputs": [],
      "stateMutability": "nonpayable",
      "type": "function"
    },
    {
      "inputs": [
        {
          "internalType": "address",
          "name": "newOwner",
          "type": "address"
        }
      ],
      "name": "transferOwnership",
      "outputs": [],
      "stateMutability": "nonpayable",
      "type": "function"
    },
    {
      "inputs": [],
      "name": "treasury",
      "outputs": [
        {
          "internalType": "address",
          "name": "",
          "type": "address"
        }
      ],
      "stateMutability": "view",
      "type": "function"
    },
    {
      "inputs": [
        {
          "internalType": "uint256",
          "name": "percent",
          "type": "uint256"
        }
      ],
      "name": "updateFees",
      "outputs": [],
      "stateMutability": "nonpayable",
      "type": "function"
    },
    {
      "inputs": [
        {
          "internalType": "contract PaymentSplitter",
          "name": "splitter",
          "type": "address"
        }
      ],
      "name": "withdraw",
      "outputs": [],
      "stateMutability": "nonpayable",
      "type": "function"
    }
  ],
  "bytecode": "0x60806040526002600d556658d15e17628000600e556103e8600f553480156200002757600080fd5b5060405162002d7838038062002d788339810160408190526200004a9162000246565b620000553362000085565b600160025562000067600082620000d5565b81516200007c9060089060208501906200016d565b50505062000374565b600080546001600160a01b038381166001600160a01b0319831681178455604051919092169283917f8be0079c531659141344cd1fd0a4f28419497f9722a3daafe3b4186f6b6457e09190a35050565b620000e18282620000e5565b5050565b60008281526001602090815260408083206001600160a01b038516845290915290205460ff16620000e15760008281526001602081815260408084206001600160a01b0386168086529252808420805460ff19169093179092559051339285917f2f8788117e7eff1d82e926ec794901d17c78024a50270940304540a733656f0d9190a45050565b8280546200017b9062000337565b90600052602060002090601f0160209004810192826200019f5760008555620001ea565b82601f10620001ba57805160ff1916838001178555620001ea565b82800160010185558215620001ea579182015b82811115620001ea578251825591602001919060010190620001cd565b50620001f8929150620001fc565b5090565b5b80821115620001f85760008155600101620001fd565b634e487b7160e01b600052604160045260246000fd5b80516001600160a01b03811681146200024157600080fd5b919050565b600080604083850312156200025a57600080fd5b82516001600160401b03808211156200027257600080fd5b818501915085601f8301126200028757600080fd5b8151818111156200029c576200029c62000213565b604051601f8201601f19908116603f01168101908382118183101715620002c757620002c762000213565b81604052828152602093508884848701011115620002e457600080fd5b600091505b82821015620003085784820184015181830185015290830190620002e9565b828211156200031a5760008484830101525b95506200032c91505085820162000229565b925050509250929050565b600181811c908216806200034c57607f821691505b602082108114156200036e57634e487b7160e01b600052602260045260246000fd5b50919050565b6129f480620003846000396000f3fe60806040526004361061025c5760003560e01c80636352211e11610144578063a217fddf116100b6578063e268e4d31161007a578063e268e4d314610754578063e8a3d48514610774578063e985e9c514610789578063f0f44260146107a9578063f2fde38b146107c9578063f4a0a528146107e957600080fd5b8063a217fddf146106bf578063a22cb465146106d4578063b88d4fde146106f4578063c87b56dd14610714578063d547741f1461073457600080fd5b806378dacee11161010857806378dacee1146106015780638da5cb5b1461062157806391d148541461063f57806395d89b411461065f5780639c4c557c1461068c578063a0712d68146106ac57600080fd5b80636352211e146105805780636694ba61146105a05780636817c76c146105b657806370a08231146105cc578063715018a6146105ec57600080fd5b80632a55205a116101dd57806342842e0e116101a157806342842e0e146104d0578063453c2310146104f057806351cff8d91461050657806355f804b3146105265780635c474f9e1461054657806361d027b31461056057600080fd5b80632a55205a146104085780632f2ff15d1461044757806332cb6b0c1461046757806336568abe1461049057806340c10f19146104b057600080fd5b8063095ea7b311610224578063095ea7b31461034b57806318160ddd1461036b5780631e7269c51461038a57806323b872dd146103b7578063248a9ca3146103d757600080fd5b806301ffc9a71461026157806302fe53051461029657806306fdde03146102b8578063081812fc1461030057806308dc9f4214610338575b600080fd5b34801561026d57600080fd5b5061028161027c36600461227b565b610809565b60405190151581526020015b60405180910390f35b3480156102a257600080fd5b506102b66102b1366004612324565b61084f565b005b3480156102c457600080fd5b5060408051808201909152601681527526b0b734b630902837b7b6102830b93a3c9021b63ab160511b60208201525b60405161028d91906123c5565b34801561030c57600080fd5b5061032061031b3660046123d8565b610880565b6040516001600160a01b03909116815260200161028d565b6102b6610346366004612411565b6108c4565b34801561035757600080fd5b506102b6610366366004612476565b610a92565b34801561037757600080fd5b506003545b60405190815260200161028d565b34801561039657600080fd5b5061037c6103a53660046124a2565b600a6020526000908152604090205481565b3480156103c357600080fd5b506102b66103d23660046124bf565b610b22565b3480156103e357600080fd5b5061037c6103f23660046123d8565b6000908152600160208190526040909120015490565b34801561041457600080fd5b50610428610423366004612500565b610b2e565b604080516001600160a01b03909316835260208301919091520161028d565b34801561045357600080fd5b506102b6610462366004612522565b610ba5565b34801561047357600080fd5b5061047d61232881565b60405161ffff909116815260200161028d565b34801561049c57600080fd5b506102b66104ab366004612522565b610bcc565b3480156104bc57600080fd5b506102b66104cb366004612476565b610c4a565b3480156104dc57600080fd5b506102b66104eb3660046124bf565b610cee565b3480156104fc57600080fd5b5061037c600d5481565b34801561051257600080fd5b506102b66105213660046124a2565b610d09565b34801561053257600080fd5b506102b6610541366004612324565b610dc5565b34801561055257600080fd5b50600b546102819060ff1681565b34801561056c57600080fd5b50601054610320906001600160a01b031681565b34801561058c57600080fd5b5061032061059b3660046123d8565b610df1565b3480156105ac57600080fd5b5061037c600f5481565b3480156105c257600080fd5b5061037c600e5481565b3480156105d857600080fd5b5061037c6105e73660046124a2565b610eae565b3480156105f857600080fd5b506102b6610ef3565b34801561060d57600080fd5b506102b661061c3660046123d8565b610f29565b34801561062d57600080fd5b506000546001600160a01b0316610320565b34801561064b57600080fd5b5061028161065a366004612522565b610f6b565b34801561066b57600080fd5b506040805180820190915260048152634d50504360e01b60208201526102f3565b34801561069857600080fd5b506102b66106a7366004612567565b610f96565b6102b66106ba3660046123d8565b610fc3565b3480156106cb57600080fd5b5061037c600081565b3480156106e057600080fd5b506102b66106ef366004612582565b6110bf565b34801561070057600080fd5b506102b661070f3660046125b7565b6110ca565b34801561072057600080fd5b506102f361072f3660046123d8565b6110d6565b34801561074057600080fd5b506102b661074f366004612522565b6111d5565b34801561076057600080fd5b506102b661076f3660046123d8565b6111fc565b34801561078057600080fd5b506102f361121b565b34801561079557600080fd5b506102816107a4366004612623565b6112ad565b3480156107b557600080fd5b506102b66107c43660046124a2565b611310565b3480156107d557600080fd5b506102b66107e43660046124a2565b611374565b3480156107f557600080fd5b506102b66108043660046123d8565b61140f565b60006001600160e01b03198216635b5e139f60e01b148061083a57506001600160e01b0319821663152a902d60e11b145b8061084957506108498261142e565b92915050565b60008051602061299f8339815191526108688133611453565b815161087b9060099060208501906121cc565b505050565b600061088b826114b7565b6108a857604051634a1850bf60e11b815260040160405180910390fd5b506000908152600660205260409020546001600160a01b031690565b6002805414156108ef5760405162461bcd60e51b81526004016108e690612651565b60405180910390fd5b600280553383158061092357506001600160a01b0381166000908152600a60205260409020548390610921908661269e565b115b8061093a575034600e548561093891906126b6565b115b8061095957506123288461094d60035490565b610957919061269e565b115b80610a315750604051631b5a5b9d60e21b60208201526bffffffffffffffffffffffff19606083901b16602482015260388101849052610a2f907f9f2df0fed2c77648de5860a4cc508cd0818c85b8b8a1ab4ceeef8d981c8956a69061065a90610a2990605801604051602081830303815290604052805190602001206040517f19457468657265756d205369676e6564204d6573736167653a0a3332000000006020820152603c8101829052600090605c01604051602081830303815290604052805190602001209050919050565b856114cc565b155b15610a4f5760405163574b16a760e11b815260040160405180910390fd5b6001600160a01b0381166000908152600a602052604081208054869290610a7790849061269e565b90915550610a87905081856114f0565b505060016002555050565b6000610a9d82610df1565b9050806001600160a01b0316836001600160a01b03161415610ad25760405163250fdee360e21b815260040160405180910390fd5b336001600160a01b0382168114801590610af35750610af182826112ad565b155b15610b115760405163250fdee360e21b815260040160405180910390fd5b610b1c84848461150a565b50505050565b61087b33848484611566565b60105460009081906001600160a01b03161580610b515750610b4f846114b7565b155b15610b6f5760405163574b16a760e11b815260040160405180910390fd5b601054600f546001600160a01b039091169061271090610b8f90866126b6565b610b9991906126eb565b915091505b9250929050565b60008281526001602081905260409091200154610bc28133611453565b61087b8383611599565b6001600160a01b0381163314610c3c5760405162461bcd60e51b815260206004820152602f60248201527f416363657373436f6e74726f6c3a2063616e206f6e6c792072656e6f756e636560448201526e103937b632b9903337b91039b2b63360891b60648201526084016108e6565b610c468282611604565b5050565b7f9f2df0fed2c77648de5860a4cc508cd0818c85b8b8a1ab4ceeef8d981c8956a6610c758133611453565b600280541415610c975760405162461bcd60e51b81526004016108e690612651565b60028055811580610cbc575061232882610cb060035490565b610cba919061269e565b115b15610cda5760405163574b16a760e11b815260040160405180910390fd5b610ce483836114f0565b5050600160025550565b61087b838383604051806020016040528060008152506110ca565b6000546001600160a01b03163314610d335760405162461bcd60e51b81526004016108e6906126ff565b600280541415610d555760405162461bcd60e51b81526004016108e690612651565b60028055600c8054610d6690612734565b15159050610d875760405163574b16a760e11b815260040160405180910390fd5b6040516001600160a01b038216904780156108fc02916000818181858888f19350505050158015610dbc573d6000803e3d6000fd5b50506001600255565b60008051602061299f833981519152610dde8133611453565b815161087b90600c9060208501906121cc565b60008181526004602052604081205482906001600160a01b031615610e2e576000908152600460205260409020546001600160a01b031692915050565b600081118015610e4057506003548111155b15610e94575b6000190180610e5457610e94565b6000818152600460205260409020546001600160a01b031615610e8f576000908152600460205260409020546001600160a01b031692915050565b610e46565b50604051634a1850bf60e11b815260040160405180910390fd5b60006001600160a01b038216610ed7576040516316285dcb60e11b815260040160405180910390fd5b506001600160a01b031660009081526005602052604090205490565b6000546001600160a01b03163314610f1d5760405162461bcd60e51b81526004016108e6906126ff565b610f27600061166b565b565b60008051602061299f833981519152610f428133611453565b6103e8821115610f655760405163574b16a760e11b815260040160405180910390fd5b50600f55565b60009182526001602090815260408084206001600160a01b0393909316845291905290205460ff1690565b60008051602061299f833981519152610faf8133611453565b50600b805460ff1916911515919091179055565b600280541415610fe55760405162461bcd60e51b81526004016108e690612651565b6002805533803b151580610ffc5750600b5460ff16155b80611005575081155b806110335750600d546001600160a01b0382166000908152600a6020526040902054611031908461269e565b115b8061104a575034600e548361104891906126b6565b115b8061106957506123288261105d60035490565b611067919061269e565b115b156110875760405163574b16a760e11b815260040160405180910390fd5b6001600160a01b0381166000908152600a6020526040812080548492906110af90849061269e565b90915550610dbc905081836114f0565b610c463383836116bb565b610b1c8484848461175b565b60606110e1826114b7565b6110fe5760405163574b16a760e11b815260040160405180910390fd5b6000600c805461110d90612734565b9050116111a4576008805461112190612734565b80601f016020809104026020016040519081016040528092919081815260200182805461114d90612734565b801561119a5780601f1061116f5761010080835404028352916020019161119a565b820191906000526020600020905b81548152906001019060200180831161117d57829003601f168201915b5050505050610849565b600c6111af836117a8565b6040516020016111c092919061278b565b60405160208183030381529060405292915050565b600082815260016020819052604090912001546111f28133611453565b61087b8383611604565b60008051602061299f8339815191526112158133611453565b50600d55565b60606009805461122a90612734565b80601f016020809104026020016040519081016040528092919081815260200182805461125690612734565b80156112a35780601f10611278576101008083540402835291602001916112a3565b820191906000526020600020905b81548152906001019060200180831161128657829003601f168201915b5050505050905090565b60006112d97f4a0c3698e72495f6d49f6ef074f2b34cac5b153c817a7cc37789cccbb873cf5d83610f6b565b8061130957506001600160a01b0380841660009081526007602090815260408083209386168352929052205460ff165b9392505050565b60008051602061299f8339815191526113298133611453565b6001600160a01b0382163b6113515760405163574b16a760e11b815260040160405180910390fd5b50601080546001600160a01b0319166001600160a01b0392909216919091179055565b6000546001600160a01b0316331461139e5760405162461bcd60e51b81526004016108e6906126ff565b6001600160a01b0381166114035760405162461bcd60e51b815260206004820152602660248201527f4f776e61626c653a206e6577206f776e657220697320746865207a65726f206160448201526564647265737360d01b60648201526084016108e6565b61140c8161166b565b50565b60008051602061299f8339815191526114288133611453565b50600e55565b60006001600160e01b031982166380ac58cd60e01b14806108495750610849826118ae565b61145d8282610f6b565b610c4657611475816001600160a01b031660146118e3565b6114808360206118e3565b604051602001611491929190612846565b60408051601f198184030181529082905262461bcd60e51b82526108e6916004016123c5565b60008082118015610849575050600354101590565b60008060006114db8585611a7f565b915091506114e881611aec565b509392505050565b610c46828260405180602001604052806000815250611ca7565b60008281526006602052604080822080546001600160a01b0319166001600160a01b0387811691821790925591518593918516917f8c5be1e5ebec7d5bd14f71427d1e84f3dd0314c0f7b2291e5b200ac8c7c3b92591a4505050565b611571848285611cb4565b61158e5760405163574b16a760e11b815260040160405180910390fd5b610b1c838383611cff565b6115a38282610f6b565b610c465760008281526001602081815260408084206001600160a01b0386168086529252808420805460ff19169093179092559051339285917f2f8788117e7eff1d82e926ec794901d17c78024a50270940304540a733656f0d9190a45050565b61160e8282610f6b565b15610c465760008281526001602090815260408083206001600160a01b0385168085529252808320805460ff1916905551339285917ff6391f5c32d9c69d2a47ea670b442974b53935d1edc7fd64eb21e047a839171b9190a45050565b600080546001600160a01b038381166001600160a01b0319831681178455604051919092169283917f8be0079c531659141344cd1fd0a4f28419497f9722a3daafe3b4186f6b6457e09190a35050565b816001600160a01b0316836001600160a01b031614156116ee5760405163079f14e360e51b815260040160405180910390fd5b6001600160a01b03838116600081815260076020908152604080832094871680845294825291829020805460ff191686151590811790915591519182527f17307eab39ab6107e8899845ad3d59bd9653f200f220920489ca2b5937696c31910160405180910390a3505050565b61176733858585611566565b6000836001600160a01b03163b11801561178a575061178884848484611e49565b155b15610b1c57604051631f11849560e21b815260040160405180910390fd5b6060816117cc5750506040805180820190915260018152600360fc1b602082015290565b8160005b81156117f657806117e0816128bb565b91506117ef9050600a836126eb565b91506117d0565b60008167ffffffffffffffff81111561181157611811612298565b6040519080825280601f01601f19166020018201604052801561183b576020820181803683370190505b5090505b84156118a6576118506001836128d6565b915061185d600a866128ed565b61186890603061269e565b60f81b81838151811061187d5761187d612901565b60200101906001600160f81b031916908160001a90535061189f600a866126eb565b945061183f565b949350505050565b60006001600160e01b03198216637965db0b60e01b148061084957506301ffc9a760e01b6001600160e01b0319831614610849565b606060006118f28360026126b6565b6118fd90600261269e565b67ffffffffffffffff81111561191557611915612298565b6040519080825280601f01601f19166020018201604052801561193f576020820181803683370190505b509050600360fc1b8160008151811061195a5761195a612901565b60200101906001600160f81b031916908160001a905350600f60fb1b8160018151811061198957611989612901565b60200101906001600160f81b031916908160001a90535060006119ad8460026126b6565b6119b890600161269e565b90505b6001811115611a30576f181899199a1a9b1b9c1cb0b131b232b360811b85600f16601081106119ec576119ec612901565b1a60f81b828281518110611a0257611a02612901565b60200101906001600160f81b031916908160001a90535060049490941c93611a2981612917565b90506119bb565b5083156113095760405162461bcd60e51b815260206004820181905260248201527f537472696e67733a20686578206c656e67746820696e73756666696369656e7460448201526064016108e6565b600080825160411415611ab65760208301516040840151606085015160001a611aaa87828585611f40565b94509450505050610b9e565b825160401415611ae05760208301516040840151611ad586838361202d565b935093505050610b9e565b50600090506002610b9e565b6000816004811115611b0057611b0061292e565b1415611b095750565b6001816004811115611b1d57611b1d61292e565b1415611b6b5760405162461bcd60e51b815260206004820152601860248201527f45434453413a20696e76616c6964207369676e6174757265000000000000000060448201526064016108e6565b6002816004811115611b7f57611b7f61292e565b1415611bcd5760405162461bcd60e51b815260206004820152601f60248201527f45434453413a20696e76616c6964207369676e6174757265206c656e6774680060448201526064016108e6565b6003816004811115611be157611be161292e565b1415611c3a5760405162461bcd60e51b815260206004820152602260248201527f45434453413a20696e76616c6964207369676e6174757265202773272076616c604482015261756560f01b60648201526084016108e6565b6004816004811115611c4e57611c4e61292e565b141561140c5760405162461bcd60e51b815260206004820152602260248201527f45434453413a20696e76616c6964207369676e6174757265202776272076616c604482015261756560f01b60648201526084016108e6565b61087b838383600161205c565b6000816001600160a01b0316846001600160a01b03161480611cef5750836001600160a01b0316611ce484610880565b6001600160a01b0316145b806118a657506118a682856112ad565b6001600160a01b0382161580611d2f5750611d1981610df1565b6001600160a01b0316836001600160a01b031614155b15611d4d5760405163574b16a760e11b815260040160405180910390fd5b611d596000828561150a565b6001600160a01b03808316600081815260056020908152604080832080546001908101909155948816835280832080546000190190558583526004909152902080546001600160a01b0319169091179055600354908201908111801590611dd557506000818152600460205260409020546001600160a01b0316155b15611e0257600081815260046020526040902080546001600160a01b0319166001600160a01b0386161790555b5080826001600160a01b0316846001600160a01b03167fddf252ad1be2c89b69c2b068fc378daa952ba7f163c4a11628f55a4df523b3ef60405160405180910390a4505050565b604051630a85bd0160e11b81526000906001600160a01b0385169063150b7a0290611e7e903390899088908890600401612944565b602060405180830381600087803b158015611e9857600080fd5b505af1925050508015611ec8575060408051601f3d908101601f19168201909252611ec591810190612981565b60015b611f23573d808015611ef6576040519150601f19603f3d011682016040523d82523d6000602084013e611efb565b606091505b508051611f1b57604051630568cbab60e01b815260040160405180910390fd5b805181602001fd5b6001600160e01b031916630a85bd0160e11b149050949350505050565b6000807f7fffffffffffffffffffffffffffffff5d576e7357a4501ddfe92f46681b20a0831115611f775750600090506003612024565b8460ff16601b14158015611f8f57508460ff16601c14155b15611fa05750600090506004612024565b6040805160008082526020820180845289905260ff881692820192909252606081018690526080810185905260019060a0016020604051602081039080840390855afa158015611ff4573d6000803e3d6000fd5b5050604051601f1901519150506001600160a01b03811661201d57600060019250925050612024565b9150600090505b94509492505050565b6000806001600160ff1b03831660ff84901c601b0161204e87828885611f40565b935093505050935093915050565b82158061207057506001600160a01b038416155b1561208e5760405163574b16a760e11b815260040160405180910390fd5b6000600354600161209f919061269e565b905060038054850190556001600160a01b03851660008181526005602090815260408083208054890190558483526004909152902080546001600160a01b03191690911790558084810183801561210057506000876001600160a01b03163b115b1561217e575b60405182906001600160a01b038916906000907fddf252ad1be2c89b69c2b068fc378daa952ba7f163c4a11628f55a4df523b3ef908290a46121516000888480600101955088611e49565b61216e57604051631f11849560e21b815260040160405180910390fd5b8082141561210657505050610b1c565b5b6040516001830192906001600160a01b038916906000907fddf252ad1be2c89b69c2b068fc378daa952ba7f163c4a11628f55a4df523b3ef908290a48082141561217f5750505050505050565b8280546121d890612734565b90600052602060002090601f0160209004810192826121fa5760008555612240565b82601f1061221357805160ff1916838001178555612240565b82800160010185558215612240579182015b82811115612240578251825591602001919060010190612225565b5061224c929150612250565b5090565b5b8082111561224c5760008155600101612251565b6001600160e01b03198116811461140c57600080fd5b60006020828403121561228d57600080fd5b813561130981612265565b634e487b7160e01b600052604160045260246000fd5b600067ffffffffffffffff808411156122c9576122c9612298565b604051601f8501601f19908116603f011681019082821181831017156122f1576122f1612298565b8160405280935085815286868601111561230a57600080fd5b858560208301376000602087830101525050509392505050565b60006020828403121561233657600080fd5b813567ffffffffffffffff81111561234d57600080fd5b8201601f8101841361235e57600080fd5b6118a6848235602084016122ae565b60005b83811015612388578181015183820152602001612370565b83811115610b1c5750506000910152565b600081518084526123b181602086016020860161236d565b601f01601f19169290920160200192915050565b6020815260006113096020830184612399565b6000602082840312156123ea57600080fd5b5035919050565b600082601f83011261240257600080fd5b611309838335602085016122ae565b60008060006060848603121561242657600080fd5b8335925060208401359150604084013567ffffffffffffffff81111561244b57600080fd5b612457868287016123f1565b9150509250925092565b6001600160a01b038116811461140c57600080fd5b6000806040838503121561248957600080fd5b823561249481612461565b946020939093013593505050565b6000602082840312156124b457600080fd5b813561130981612461565b6000806000606084860312156124d457600080fd5b83356124df81612461565b925060208401356124ef81612461565b929592945050506040919091013590565b6000806040838503121561251357600080fd5b50508035926020909101359150565b6000806040838503121561253557600080fd5b82359150602083013561254781612461565b809150509250929050565b8035801515811461256257600080fd5b919050565b60006020828403121561257957600080fd5b61130982612552565b6000806040838503121561259557600080fd5b82356125a081612461565b91506125ae60208401612552565b90509250929050565b600080600080608085870312156125cd57600080fd5b84356125d881612461565b935060208501356125e881612461565b925060408501359150606085013567ffffffffffffffff81111561260b57600080fd5b612617878288016123f1565b91505092959194509250565b6000806040838503121561263657600080fd5b823561264181612461565b9150602083013561254781612461565b6020808252601f908201527f5265656e7472616e637947756172643a207265656e7472616e742063616c6c00604082015260600190565b634e487b7160e01b600052601160045260246000fd5b600082198211156126b1576126b1612688565b500190565b60008160001904831182151516156126d0576126d0612688565b500290565b634e487b7160e01b600052601260045260246000fd5b6000826126fa576126fa6126d5565b500490565b6020808252818101527f4f776e61626c653a2063616c6c6572206973206e6f7420746865206f776e6572604082015260600190565b600181811c9082168061274857607f821691505b6020821081141561276957634e487b7160e01b600052602260045260246000fd5b50919050565b6000815161278181856020860161236d565b9290920192915050565b600080845481600182811c9150808316806127a757607f831692505b60208084108214156127c757634e487b7160e01b86526022600452602486fd5b8180156127db57600181146127ec57612819565b60ff19861689528489019650612819565b60008b81526020902060005b868110156128115781548b8201529085019083016127f8565b505084890196505b50505050505061283d61282c828661276f565b64173539b7b760d91b815260050190565b95945050505050565b7f416363657373436f6e74726f6c3a206163636f756e742000000000000000000081526000835161287e81601785016020880161236d565b7001034b99036b4b9b9b4b733903937b6329607d1b60179184019182015283516128af81602884016020880161236d565b01602801949350505050565b60006000198214156128cf576128cf612688565b5060010190565b6000828210156128e8576128e8612688565b500390565b6000826128fc576128fc6126d5565b500690565b634e487b7160e01b600052603260045260246000fd5b60008161292657612926612688565b506000190190565b634e487b7160e01b600052602160045260246000fd5b6001600160a01b038581168252841660208201526040810183905260806060820181905260009061297790830184612399565b9695505050505050565b60006020828403121561299357600080fd5b81516113098161226556fe850d585eb7f024ccee5e68e55f2c26cc72e1e6ee456acf62135757a5eb9d4a10a2646970667358221220773ad7d5675863ff58aaa686026ea28d5f0719964404c4fdd76e1c578d11805464736f6c63430008090033",
  "linkReferences": {},
  "deployedLinkReferences": {}
}